:100000003EC0000058C0000056C0000054C00000B0
:1000100052C0000050C000004EC000004CC00000A4
:100020004AC0000048C0000046C0000091C4000063
:1000300042C0000040C000003EC000003CC00000C4
:100040003AC0000038C000005DC20000B3C200002A
:1000500032C0000030C000002EC000002CC00000E4
:100060002AC0000028C000005374617274696E6772
:10007000207363686564756C65720D0A0000112455
:100080001FBECFEFD8E0DEBFCDBF11E0A0E0B1E0F2
:10009000EEEAF6E102C005900D92A033B107D9F760
:1000A00027E0A0E3B1E001C01D92A538B207E1F757
:1000B0003AD00C94550BA4CFCF93DF931F92CDB7BA
:1000C000DEB780E091E06AD00FE011E0BE016F5F23
:1000D0007F4F83E697E0F4D0811104C081E090E087
:1000E00002D7F4CF89811F928F931F930F93B7D0BC
:1000F0000F900F900F900F90E9CFCF93DF9300D028
:10010000CDB7DEB7259AA1D59A8389832D9A64E667
:1001100070E0CE010196B4D62D9868EE73E0CE0162
:100120000196AED6F3CFCF93DF93CDB7DEB7A297CC
:100130000FB6F894DEBF0FBECDBF80E1E82EF12CE4
:1001400000E110E020E835E240E050E060E0CE0160
:100150000196E0D082E2FE013196A3E6B7E001907D
:100160000D928A95E1F788E690E0AFD1E12CF12C71
:1001700003E020E030E040E051E069E171E08DE72C
:1001800090E049D404E020E030E040E051E062E259
:1001900071E08CE590E03FD42AD5FFCFCF93DF9379
:1001A000FC0101900020E9F7DC019F012150310999
:1001B00040E757E0A217B30709F44EC08D910FB680
:1001C000F8940F92E0917007F09171070F900FBEB5
:1001D00060917A0770917B07E617F707B1F4EFEFAC
:1001E000F9EF3197F1F700C000000FB6F8940F92C5
:1001F000E0917007F09171070F900FBE60917A0740
:1002000070917B07E617F707A9F2FA01C281D38143
:10021000888382819381019693838283608571852F
:100220008617970721F486819781938382830FB67F
:10023000F8940F92808191810196918380830F9031
:100240000FBE80916307823008F0B4CF8091C10067
:1002500080628093C100AECFDF91CF910895EF927D
:10026000FF920F931F93CF93DF93CDB7DEB78E012D
:10027000075F1F4FF801E190F1908F018091800797
:10028000813011F4B3D2FACF81E08093800760917E
:100290007E0770917F079801A70180917C0790915C
:1002A0007D0734D780917C0790917D0777DF10928E
:1002B0008007DF91CF911F910F91FF90EF900895EC
:1002C0000FB6F8940F92FC01218132810F900FBE7E
:1002D000232BF1F00196FC01A481B5812D91B5830A
:1002E000A48380859185A817B90721F48681978119
:1002F000958384830FB6F8940F9280819181019742
:10030000918380830F900FBEFB01208381E00895CD
:1003100080E00895BF92CF92DF92EF92FF920F9309
:100320001F93CF93DF93CDB7DEB7A6970FB6F894A0
:10033000DEBF0FBECDBF6C01B62EC7012BA33CA301
:100340004DA35EA37CD12BA13CA14DA15EA1009742
:10035000A9F0FE0132960FB6F8940F921182108226
:100360009383828395838483978386838E0D9F1DD9
:1003700091878087F386E2860F900FBEC8012BA37A
:100380003CA34DA35EA35BD12BA13CA14DA15EA1DB
:100390000097A9F0FE013E960FB6F8940F921182D5
:1003A0001082938382839583848397838683800FCF
:1003B000911F91878087138702870F900FBEC80116
:1003C0002BA33CA34DA35EA33AD19B8F8A8FB98206
:1003D0001D8F0C8F1E8E2BA13CA14DA15EA12F8FD6
:1003E00038A349A35AA30FB6F8940F92BB2061F12A
:1003F00081E0B8124FC01092C5001092C400549A08
:1004000080EC8093C20088E98093C100DA01C901C1
:10041000805C9D4BA04FBF4FBC01CD01E3E0660F58
:10042000771F881F991FEA95D1F7F4E0220F331F39
:10043000441F551FFA95D1F73ED62150310930930C
:10044000C5002093C40026C0DA01C90180589B472B
:10045000A14EBF4FBC01CD01A2E0660F771F881FE0
:10046000991FAA95D1F7B3E0220F331F441F551FE0
:10047000BA95D1F720D6215031093093C500209389
:10048000C40082E08093C00088E98093C1008EE0C0
:100490008093C2000F900FBE82E2FE013196D6011A
:1004A00001900D928A95E1F7C601A6960FB6F894D1
:1004B000DEBF0FBECDBFDF91CF911F910F91FF9097
:1004C000EF90DF90CF90BF900895CF93DF93D82F18
:1004D000C92F13D6ED2FFC2F8E0F9F1FE817F9079A
:1004E00071F024913091C00035FD05C032E43A9599
:1004F000F1F700C0F7CF2093C6003196EFCFDF9120
:10050000CF9108951F920F920FB60F9211242F933F
:100510003F934F935F938F939F93AF93BF93EF93CB
:10052000FF938091C0008C7139F08091C00087FFEB
:1005300032C08091C600F9CF8091C6000FB6F89402
:100540000F9240916407509165070F900FBE209164
:100550006E0730916F0742175307E9F0E4E6F7E0C2
:10056000A281B3818C93828193810196938382834C
:10057000208531858217930721F4868197819383A3
:1005800082830FB6F8940F928081918101969183B6
:1005900080830F900FBEFF91EF91BF91AF919F911C
:1005A0008F915F914F913F912F910F900FBE0F90C0
:1005B0001F9018951F920F920FB60F9211242F9330
:1005C0008F939F93AF93BF93EF93FF930FB6F894DE
:1005D0000F9280917007909171070F900FBE892B39
:1005E00031F48091C1008F7D8093C1001CC0E0E791
:1005F000F7E0A481B5812D91B583A4838085918591
:10060000A817B90721F486819781958384830FB653
:10061000F8940F92808191810197918380830F904C
:100620000FBE2093C600FF91EF91BF91AF919F91B4
:100630008F912F910F900FBE0F901F901895CF9311
:10064000DF93EC01FCD28091300190913101892B34
:1006500031F485E391E09093310180933001209152
:10066000320130913301CE01820F931F8B3D45E063
:10067000940770F42817390758F4C0913001D091CD
:100680003101C20FD31F909333018093320102C016
:10069000C0E0D0E08CD3CE01DF91CF9108950895D2
:1006A00031E1FC013083319722E220833197A3E3CB
:1006B000A08331976083319770833197108231978F
:1006C00060E8608331971082319762E060833197F0
:1006D00063E06083319764E06083319765E0608315
:1006E000319766E06083319767E06083319768E017
:1006F0006083319769E06083319760E1608331976F
:100700003083319732E13083319733E13083319751
:1007100034E13083319735E13083319736E13083EE
:10072000319737E13083319738E13083319739E1C0
:100730003083319730E23083319731E23083319723
:100740002083319723E22083319740833197508370
:10075000319726E22083319727E22083319728E2E0
:100760002083319729E22083319720E3208331973A
:1007700021E3208386970895109289008CE7809367
:1007800088008BE080938100EFE6F0E0808182605A
:100790008083A0916107B0916207CD91CDBFDD91BB
:1007A000DEBFFF91EF91DF91CF91BF91AF919F910C
:1007B0008F917F916F915F914F913F912F911F91F9
:1007C0000F91FF90EF90DF90CF90BF90AF909F90F0
:1007D0008F907F906F905F904F903F902F901F90E1
:1007E0000F900FBE0F90089581E008950F920FB6FD
:1007F000F8940F921F9211242F923F924F925F9282
:100800006F927F928F929F92AF92BF92CF92DF9220
:10081000EF92FF920F931F932F933F934F935F930A
:100820006F937F938F939F93AF93BF93CF93DF93F8
:10083000EF93FF93A0916107B09162070DB60D92FF
:100840000EB60D9267D3A0916107B0916207CD916A
:10085000CDBFDD91DEBFFF91EF91DF91CF91BF91D1
:10086000AF919F918F917F916F915F914F913F9148
:100870002F911F910F91FF90EF90DF90CF90BF903D
:10088000AF909F908F907F906F905F904F903F9030
:100890002F901F900F900FBE0F9008950F920FB6DC
:1008A000F8940F921F9211242F923F924F925F92D1
:1008B0006F927F928F929F92AF92BF92CF92DF9270
:1008C000EF92FF920F931F932F933F934F935F935A
:1008D0006F937F938F939F93AF93BF93CF93DF9348
:1008E000EF93FF93A0916107B09162070DB60D924F
:1008F0000EB60D92B4D181110DD3A0916107B091C4
:100900006207CD91CDBFDD91DEBFFF91EF91DF9109
:10091000CF91BF91AF919F918F917F916F915F9197
:100920004F913F912F911F910F91FF90EF90DF908A
:10093000CF90BF90AF909F908F907F906F905F907F
:100940004F903F902F901F900F900FBE0F900895E3
:10095000A5DF189580913D078230F0F347DFFACF8D
:10096000E0912907F0912A078081811103C08FEF60
:100970009FEF0CC0E0912907F0912A070580F681CE
:10098000E02D0680F781E02D8281938190931407FA
:100990008093130708950F931F93CF93DF93EC0178
:1009A00000911B0710911C078091610790916207CD
:1009B00002965ED3C00FD11FE0916107F0916207EC
:1009C000D383C2836091610770916207C017D1071A
:1009D00058F480912707909128076E5F7F4FDF9131
:1009E000CF911F910F910CC38091290790912A07F5
:1009F0006E5F7F4F05D38091130790911407C8173E
:100A0000D90720F4D0931407C0931307DF91CF9137
:100A10001F910F9108952F923F925F926F927F9254
:100A20008F929F92AF92BF92CF92DF92EF92FF92FE
:100A30000F931F93CF93DF934C01562E172F5A011C
:100A40003901CA01FCDD1C01892B09F4BDC084E217
:100A500090E0F5DDEC01009781F0388E2F8A65017A
:100A600021E0C21AD108C20CD31CBC01675E7F4FC3
:100A7000E52DF12FCF01049606C0C10110DEA4C000
:100A8000E817F90749F09F014191DB014D93BD0142
:100A9000D9012C912111F4CF1C8E043008F003E011
:100AA0000E8B0D8F1E8E5E01B2E0AB0EB11CC50128
:100AB00082D2CE010C967FD2D987C88784E090E09D
:100AC000801B91099D878C87DB8BCA8B1F8E18A298
:100AD00019A21AA21BA2A301B401C601E1DD9983E8
:100AE0008883E114F10419F0F701D183C0830FB6B4
:100AF000F8940F9280911D078F5F80931D0780915E
:100B0000610790916207892B51F5D0936207C093DA
:100B1000610780911D07813091F58DE397E03DD20B
:100B200086E497E03AD28FE497E037D288E597E001
:100B300034D284E397E031D28BE297E02ED28EE17B
:100B400097E02BD284E397E090932A0780932907BC
:100B50008BE297E0909328078093270710C080913D
:100B6000190781110CC0E0916107F0916207968925
:100B70008E89891720F0D0936207C0936107809116
:100B800015078F5F809315078E8990911A07981724
:100B900010F480931A07F9E08F9FC0011124B5016A
:100BA000835C984F0CD20F900FBE80911907882359
:100BB00049F0E0916107F091620796898E89981754
:100BC00008F414DE81E001C08FEFDF91CF911F9117
:100BD0000F91FF90EF90DF90CF90BF90AF909F90DC
:100BE0008F907F906F905F903F902F900895EF923D
:100BF000FF920F9381E1E82E87E0F82E00E020E0DD
:100C000030E045E550E06AE271E08AEA94E003DF13
:100C1000813089F4F8942FEF3FEF3093140720933D
:100C200013078093190710921C0710921B070F914E
:100C3000FF90EF90A1CD0F91FF90EF9008958091DC
:100C400010078F5F8093100708950FB6F8940F92E6
:100C500080911B0790911C070F900FBE0895CF92B3
:100C6000DF92EF92FF920F931F93CF93DF938091C8
:100C70001007811188C000911B0710911C070F5F9E
:100C80001F4F10931C0700931B0701151105B1F4AA
:100C90008091290790912A072091270730912807F2
:100CA00030932A07209329079093280780932707DA
:100CB000809116078F5F8093160752DE809113078D
:100CC00090911407C0E00817190708F44CC0D9E048
:100CD000E0912907F0912A078081811103C08FEFED
:100CE0009FEF11C0E0912907F0912A070580F68156
:100CF000E02DE680F780D70112968D919C91139795
:100D00000817190728F490931407809313072BC032
:100D10006701B2E0CB0ED11CC601AAD1F7018489CC
:100D20009589892B19F0C7010C96A2D1D701569647
:100D30009C9180911A07891710F490931A07D99FF4
:100D4000C0011124B601835C984F39D1E09161074D
:100D5000F0916207D70156969C918689981708F4FE
:100D6000B7CFC1E0B5CFE0916107F0916207E689A6
:100D7000B9E0EB9FF0011124E35CF84F80818230F1
:100D800040F0C1E006C0809118078F5F809318077C
:100D9000C0E0809117078111C1E08C2FDF91CF91C6
:100DA0001F910F91FF90EF90DF90CF900895EF92F9
:100DB000FF920F931F93CF93DF930FB6F8940F9288
:100DC000809110078150809310078091100788232D
:100DD00011F080E04CC080911D078823D1F3C0E062
:100DE000D0E089E0F82EEE24E39480911E0788235A
:100DF00039F1E0912307F0912407C681D781CE0114
:100E00000C9636D18E010E5F1F4FC80131D19E89DD
:100E100080911A07891710F490931A07F99EC00160
:100E20001124B801835C984FCAD0E0916107F0911A
:100E300062079E8986899817C0F2E0921707D5CF7E
:100E4000CD2B09F08DDDC0911807CC2349F0D1E0FE
:100E500006DF8111D0931707C150D1F71092180700
:100E600080911707882309F4B4CFC0DC81E00F908C
:100E70000FBEDF91CF911F910F91FF90EF900895DA
:100E80000F931F93CF93DF938C01EB01D8DE20915A
:100E90001B0730911C07F80140815181BA016C0F8A
:100EA0007D1F2417350728F46417750748F491E06F
:100EB00004C091E06417750720F02617370708F083
:100EC00090E0F80171836083992321F0CB01821BAC
:100ED000930B61DD6CDF811101C088DCDF91CF9164
:100EE0001F910F910895CF93DF9300D0CDB7DEB758
:100EF000009711F47BDC09C089839A83A0DE898185
:100F00009A8149DD54DF8823A9F30F900F90DF9178
:100F1000CF91089580911007882321F081E080937C
:100F2000170708951092170780911A0769E0482F54
:100F300050E0649F9001659F300D1124F901E35C3E
:100F4000F84F9081911102C08150F1CFA181B281FF
:100F500012960D90BC91A02DB283A183205C384FD6
:100F6000A217B30731F412962D913C911397328357
:100F7000218399E0949FF001959FF00D1124E35C8B
:100F8000F84F0180F281E02D26813781309362078E
:100F90002093610780931A070895FC0103969283BA
:100FA00081832FEF3FEF348323839683858390875C
:100FB000878310820895FC01118610860895CF93CF
:100FC000DF939C01FB01DC011196CD91DC9112971E
:100FD000D383C2838C819D81958384838C819D8101
:100FE000DC0113967C936E9312977D836C8331871B
:100FF0002087F90180818F5F8083DF91CF910895F1
:101000000F931F93CF93DF938C01FB01808191811C
:101010008F3F2FEF920721F4E801AF81B8850EC012
:10102000D801139612962D913C911397E9014881AE
:1010300059818417950710F0D901F4CF12968D913C
:101040009C91139793838283EC01FD83EC83B5839A
:10105000A4831396FC93EE93129711870087F801EF
:1010600080818F5F8083DF91CF911F910F910895D1
:10107000CF93DF93FC01A085B18582819381248188
:101080003581EC013D832C83C481D5819B838A8388
:1010900011968D919C9112978E179F0721F41296AD
:1010A000DC93CE931197118610868C9181508C938E
:1010B000DF91CF910895A1E21A2EAA1BBB1BFD015F
:1010C0000DC0AA1FBB1FEE1FFF1FA217B307E40727
:1010D000F50720F0A21BB30BE40BF50B661F771F7F
:1010E000881F991F1A9469F760957095809590955F
:1010F0009B01AC01BD01CF010895FC0105900020CA
:10110000E9F7809590958E0F9F1F0895AEE0B0E0AF
:10111000EBE8F8E0A1C28C01CA0146E04C831A83D7
:10112000098377FF02C060E070E8FB013197FE831E
:10113000ED83A901BC01CE01019611D04D815E81E4
:1011400057FD0AC02F813885421753070CF49A01C6
:10115000F801E20FF31F10822E96E4E099C2ACE092
:10116000B0E0E4EBF8E06AC27C016B018A01FC01AB
:1011700017821682838181FFB0C1CE0101964C0196
:10118000F7019381F60193FD859193FF81916F01A2
:10119000882309F49EC1853239F493FD859193FF2C
:1011A00081916F01853221F4B70190E0B1D1E8CF90
:1011B000512C312C20E02032A0F48B3269F030F435
:1011C000803259F0833269F420612CC08D3239F0BD
:1011D000803339F4216026C02260246023C0286057
:1011E00021C027FD27C030ED380F3A3078F426FFB4
:1011F00006C0FAE05F9E300D1124532E13C08AE022
:10120000389E300D1124332E20620CC08E3221F412
:1012100026FD5FC1206406C08C3611F4206802C030
:10122000883641F4F60193FD859193FF81916F011A
:101230008111C1CF982F9F7D9554933028F40C5F76
:101240001F4FFFE3F9830DC0833631F0833771F010
:10125000833509F057C021C0F801808189830E5F72
:101260001F4F44244394512C540114C03801F2E020
:101270006F0E711CF801A080B18026FF03C0652DA0
:1012800070E002C06FEF7FEFC5012C8736D12C01D3
:1012900083012C852F77222E16C03801F2E06F0EC5
:1012A000711CF801A080B18026FF03C0652D70E09D
:1012B00002C06FEF7FEFC5012C8714D12C012C8564
:1012C0002068222E830123FC19C0832D90E048164C
:1012D0005906A0F4B70180E290E01AD13A94F5CF14
:1012E000F50127FC859127FE81915F01B70190E010
:1012F0000FD131103A94F1E04F1A510841145104C2
:1013000079F7DEC0843611F0893631F5F80127FF10
:1013100007C060817181828193810C5F1F4F08C07B
:1013200060817181072E000C880B990B0E5F1F4F97
:101330002F76722E97FF09C09095809570956195D4
:101340007F4F8F4F9F4F2068722E2AE030E0A4011C
:1013500017D1A82EA81843C0853729F42F7EB22EA6
:101360002AE030E025C0F22FF97FBF2E8F36C1F082
:1013700018F4883579F0ADC0803719F0883721F03E
:10138000A8C02F2F2061B22EB4FE0DC08B2D84601B
:10139000B82E09C024FF0AC09F2F9660B92E06C040
:1013A00028E030E005C020E130E002C020E132E07A
:1013B000F801B7FE07C060817181828193810C5F63
:1013C0001F4F06C06081718180E090E00E5F1F4F6B
:1013D000A401D6D0A82EA818FB2DFF777F2E76FE6D
:1013E0000BC0372D3E7FA51450F474FE0AC072FC6A
:1013F00008C0372D3E7E05C0BA2C372D03C0BA2C4D
:1014000001C0B52C34FF0DC0FE01EA0DF11D808135
:10141000803311F4397E09C032FF06C0B394B3940F
:1014200004C0832F867809F0B39433FD12C030FFD7
:1014300006C05A2CB31418F4530C5B18B32CB31415
:1014400060F4B70180E290E03C8762D0B3943C85C1
:10145000F6CFB31410F43B1801C0312C34FF11C087
:10146000B70180E390E03C8753D03C8532FF16C043
:1014700031FD03C088E790E002C088E590E0B70145
:101480000CC0832F867851F031FF02C08BE201C07F
:1014900080E237FD8DE2B70190E03AD0A51430F438
:1014A000B70180E390E034D05A94F8CFAA94F401C5
:1014B000EA0DF11D8081B70190E02AD0A110F6CF8E
:1014C000332009F45DCEB70180E290E021D03A9458
:1014D000F7CFF7018681978102C08FEF9FEF2C969F
:1014E000E2E1C8C0FC010590615070400110D8F7DE
:1014F000809590958E0F9F1F0895FC01615070405C
:1015000001900110D8F7809590958E0F9F1F089538
:101510000F931F93CF93DF93FB01238121FD03C022
:101520008FEF9FEF28C022FF16C04681578124818C
:1015300035814217530744F4A081B1819D012F5F8B
:101540003F4F318320838C93268137812F5F3F4F1C
:101550003783268310C0EB01092F182F0084F185F3
:10156000E02D0995892BE1F68E819F8101969F835D
:101570008E83812F902FDF91CF911F910F9108952E
:10158000FA01AA27283051F1203181F1E8946F93B4
:101590006E7F6E5F7F4F8F4F9F4FAF4FB1E03ED05A
:1015A000B4E03CD0670F781F891F9A1FA11D680FF8
:1015B000791F8A1F911DA11D6A0F711D811D911D2B
:1015C000A11D20D009F468943F912AE0269F1124A0
:1015D0003019305D3193DEF6CF010895462F477004
:1015E000405D4193B3E00FD0C9F7F6CF462F4F705F
:1015F000405D4A3318F0495D31FD4052419302D0BD
:10160000A9F7EACFB4E0A695979587957795679562
:10161000BA95C9F700976105710508959B01AC0162
:101620000A2E06945795479537952795BA95C9F789
:10163000620F731F841F951FA01D08952F923F9264
:101640004F925F926F927F928F929F92AF92BF92D2
:10165000CF92DF92EF92FF920F931F93CF93DF937E
:10166000CDB7DEB7CA1BDB0B0FB6F894DEBF0FBEDB
:10167000CDBF09942A88398848885F846E847D8428
:101680008C849B84AA84B984C884DF80EE80FD802A
:101690000C811B81AA81B981CE0FD11D0FB6F894A0
:0E16A000DEBF0FBECDBFED010895F894FFCF61
:1016AE00436F6D6D616E64207461736B0D0A006320
:1016BE006861722025640D0A00477265656E4C459F
:1016CE004400436F6D6D616E640049444C450000EB
:00000001FF
