:100000003EC0000058C0000056C0000054C00000B0
:1000100052C0000050C000004EC000004CC00000A4
:100020004AC0000048C0000046C000001AC50000D9
:1000300042C0000040C000003EC000003CC00000C4
:100040003AC0000038C000005DC20000B3C200002A
:1000500032C0000030C000002EC000002CC00000E4
:100060002AC0000028C000005374617274696E6772
:10007000207363686564756C65720D0A0000112455
:100080001FBECFEFD8E0DEBFCDBF11E0A0E0B1E0F2
:10009000ECE0F8E102C005900D92A233B107D9F768
:1000A00027E0A2E3B1E001C01D92A639B207E1F753
:1000B0003AD00C94040CA4CFCF93DF931F92CDB70A
:1000C000DEB782E091E06AD001E111E0BE016F5F2E
:1000D0007F4F84E797E0F4D0811104C081E090E085
:1000E00083D7F4CF89811F928F931F930F93B7D03B
:1000F0000F900F900F900F90E9CFCF93DF9300D028
:10010000CDB7DEB7259A22D69A8389832D9A64E6E5
:1001100070E0CE01019635D72D9868EE73E0CE01E0
:1001200001962FD7F3CFCF93DF93CDB7DEB7A2974A
:100130000FB6F894DEBF0FBECDBF80E1E82EF12CE4
:1001400000E110E020E835E240E050E060E0CE0160
:100150000196E0D082E2FE013196A4E7B7E001907B
:100160000D928A95E1F788E690E0AFD1E12CF12C71
:1001700003E020E030E040E051E06BE171E08DE72A
:1001800090E0CCD404E020E030E040E051E064E2D4
:1001900071E08CE590E0C2D4ABD5FFCFCF93DF9375
:1001A000FC0101900020E9F7DC019F012150310999
:1001B00041E857E0A217B30709F44EC08D910FB67E
:1001C000F8940F92E0918107F09182070F900FBE93
:1001D00060918B0770918C07E617F707B1F4EFEF8A
:1001E000F9EF3197F1F700C000000FB6F8940F92C5
:1001F000E0918107F09182070F900FBE60918B070D
:1002000070918C07E617F707A9F2FA01C281D38132
:10021000888382819381019693838283608571852F
:100220008617970721F486819781938382830FB67F
:10023000F8940F92808191810196918380830F9031
:100240000FBE80917407823008F0B4CF8091C10056
:1002500080628093C100AECFDF91CF910895EF927D
:10026000FF920F931F93CF93DF93CDB7DEB78E012D
:10027000075F1F4FF801E190F1908F018091910786
:10028000813011F43CD3FACF81E0809391076091E3
:100290008F07709190079801A70180918D07909129
:1002A0008E07E3D780918D0790918E0777DF1092AC
:1002B0009107DF91CF911F910F91FF90EF900895DB
:1002C0000FB6F8940F92FC01218132810F900FBE7E
:1002D000232BF1F00196FC01A481B5812D91B5830A
:1002E000A48380859185A817B90721F48681978119
:1002F000958384830FB6F8940F9280819181019742
:10030000918380830F900FBEFB01208381E00895CD
:1003100080E00895BF92CF92DF92EF92FF920F9309
:100320001F93CF93DF93CDB7DEB7A6970FB6F894A0
:10033000DEBF0FBECDBF6C01B62EC7012BA33CA301
:100340004DA35EA37CD12BA13CA14DA15EA1009742
:10035000A9F0FE0132960FB6F8940F921182108226
:100360009383828395838483978386838E0D9F1DD9
:1003700091878087F386E2860F900FBEC8012BA37A
:100380003CA34DA35EA35BD12BA13CA14DA15EA1DB
:100390000097A9F0FE013E960FB6F8940F921182D5
:1003A0001082938382839583848397838683800FCF
:1003B000911F91878087138702870F900FBEC80116
:1003C0002BA33CA34DA35EA33AD19B8F8A8FB98206
:1003D0001D8F0C8F1E8E2BA13CA14DA15EA12F8FD6
:1003E00038A349A35AA30FB6F8940F92BB2061F12A
:1003F00081E0B8124FC01092C5001092C400549A08
:1004000080EC8093C20088E98093C100DA01C901C1
:10041000805C9D4BA04FBF4FBC01CD01E3E0660F58
:10042000771F881F991FEA95D1F7F4E0220F331F39
:10043000441F551FFA95D1F7EDD62150310930935D
:10044000C5002093C40026C0DA01C90180589B472B
:10045000A14EBF4FBC01CD01A2E0660F771F881FE0
:10046000991FAA95D1F7B3E0220F331F441F551FE0
:10047000BA95D1F7CFD6215031093093C5002093DA
:10048000C40082E08093C00088E98093C1008EE0C0
:100490008093C2000F900FBE82E2FE013196D6011A
:1004A00001900D928A95E1F7C601A6960FB6F894D1
:1004B000DEBF0FBECDBFDF91CF911F910F91FF9097
:1004C000EF90DF90CF90BF900895CF93DF93D82F18
:1004D000C92FC2D6ED2FFC2F8E0F9F1FE817F907EB
:1004E00071F024913091C00035FD05C032E43A9599
:1004F000F1F700C0F7CF2093C6003196EFCFDF9120
:10050000CF9108951F920F920FB60F9211242F933F
:100510003F934F935F938F939F93AF93BF93EF93CB
:10052000FF938091C0008C7139F08091C00087FFEB
:1005300032C08091C600F9CF8091C6000FB6F89402
:100540000F9240917507509176070F900FBE209142
:100550007F073091800742175307E9F0E5E7F7E09E
:10056000A281B3818C93828193810196938382834C
:10057000208531858217930721F4868197819383A3
:1005800082830FB6F8940F928081918101969183B6
:1005900080830F900FBEFF91EF91BF91AF919F911C
:1005A0008F915F914F913F912F910F900FBE0F90C0
:1005B0001F9018951F920F920FB60F9211242F9330
:1005C0008F939F93AF93BF93EF93FF930FB6F894DE
:1005D0000F9280918107909182070F900FBE892B17
:1005E00031F48091C1008F7D8093C1001CC0E1E88F
:1005F000F7E0A481B5812D91B583A4838085918591
:10060000A817B90721F486819781958384830FB653
:10061000F8940F92808191810197918380830F904C
:100620000FBE2093C600FF91EF91BF91AF919F91B4
:100630008F912F910F900FBE0F901F9018950F93D1
:100640001F93CF93DF93EC017BD380913201811113
:1006500021C08CE391E09093380180933701109290
:100660003A01109239018BED95E090933601809319
:100670003501109234011092330190933F01809321
:100680003E0183E391E090933D0180933C0181E042
:1006900080933201209709F02496CE0101978A3D7C
:1006A000954008F053C0E0913701F0913801A7E37D
:1006B000B1E0828193818C179D0728F021E0E3331C
:1006C000F20749F443C02081318121153105B1F38E
:1006D000DF01F901EECF0D911C9111970C5F1F4FB7
:1006E000208131812D933C938C1B9D0B893091058A
:1006F00000F1DF01AC0FBD1F13969C938E931297F0
:10070000D383C28312962D913C91139767E371E0D6
:10071000EB0188819981EC014A815B814217530783
:1007200010F4BC01F5CF11969C938E93EB01B98325
:10073000A883809100019091010122813381821B65
:10074000930B909301018093000102C000E010E040
:10075000AFD3C801DF91CF911F910F910895CF932F
:10076000DF93009719F1EC012497EAD28A819B81EB
:10077000E7E3F1E0A081B18112962D913C911397AE
:100780002817390710F4FD01F5CFB983A883D18369
:10079000C0832091000130910101820F931F90933B
:1007A000010180930001DF91CF9182C3DF91CF914E
:1007B000089531E1FC013083319722E220833197A3
:1007C000A3E3A083319760833197708331971082C0
:1007D000319760E8608331971082319762E06083DF
:1007E000319763E06083319764E06083319765E01F
:1007F0006083319766E06083319767E0608331976B
:1008000068E06083319769E06083319760E16083DD
:1008100031973083319732E13083319733E1308340
:10082000319734E13083319735E13083319736E1C8
:100830003083319737E13083319738E13083319716
:1008400039E13083319730E23083319731E23083C0
:1008500031972083319723E220833197408331976A
:100860005083319726E22083319727E22083319706
:1008700028E22083319729E22083319720E32083E7
:10088000319721E3208386970895109289008CE7A1
:10089000809388008BE080938100EFE6F0E0808118
:1008A00082608083A0917207B0917307CD91CDBF14
:1008B000DD91DEBFFF91EF91DF91CF91BF91AF91BD
:1008C0009F918F917F916F915F914F913F912F9168
:1008D0001F910F91FF90EF90DF90CF90BF90AF905E
:1008E0009F908F907F906F905F904F903F902F9050
:1008F0001F900F900FBE0F90089581E008950F9202
:100900000FB6F8940F921F9211242F923F924F929C
:100910005F926F927F928F929F92AF92BF92CF928F
:10092000DF92EF92FF920F931F932F933F934F937A
:100930005F936F937F938F939F93AF93BF93CF9367
:10094000DF93EF93FF93A0917207B09173070DB6F9
:100950000D920EB60D928DD3A0917207B0917307D0
:10096000CD91CDBFDD91DEBFFF91EF91DF91CF91B2
:10097000BF91AF919F918F917F916F915F914F91B7
:100980003F912F911F910F91FF90EF90DF90CF90AB
:10099000BF90AF909F908F907F906F905F904F909F
:1009A0003F902F901F900F900FBE0F9008950F92C1
:1009B0000FB6F8940F921F9211242F923F924F92EC
:1009C0005F926F927F928F929F92AF92BF92CF92DF
:1009D000DF92EF92FF920F931F932F933F934F93CA
:1009E0005F936F937F938F939F93AF93BF93CF93B7
:1009F000DF93EF93FF93A0917207B09173070DB649
:100A00000D920EB60D92ACD1811133D3A091720725
:100A1000B0917307CD91CDBFDD91DEBFFF91EF9116
:100A2000DF91CF91BF91AF919F918F917F916F9106
:100A30005F914F913F912F911F910F91FF90EF90F8
:100A4000DF90CF90BF90AF909F908F907F906F90EE
:100A50005F904F903F902F901F900F900FBE0F9080
:100A60000895A5DF1895E0913A07F0913B07808142
:100A7000811103C08FEF9FEF0CC0E0913A07F09116
:100A80003B070580F681E02D0680F781E02D82810D
:100A9000938190931B0780931A0708950F931F93D8
:100AA000CF93DF93EC0100912207109123078091EF
:100AB00072079091730702968AD3C00FD11FE091FD
:100AC0007207F0917307D383C283609172077091AC
:100AD0007307C017D10758F48091380790913907F0
:100AE0006E5F7F4FDF91CF911F910F9138C380913F
:100AF0003A0790913B076E5F7F4F31D380911A0781
:100B000090911B07C817D90720F4D0931B07C093F7
:100B10001A07DF91CF911F910F9108954F925F9225
:100B20006F927F928F929F92AF92BF92CF92DF92FD
:100B3000EF92FF920F931F93CF93DF935C01762E7A
:100B4000172F6A014901CA017ADD2C01892B09F4AA
:100B5000BDC086E290E073DDEC01009779F0588E1D
:100B60004F8A21E0C21AD108C40CD51CBC01675EB3
:100B70007F4FE72DF12FCF01089606C0C201EFDDB0
:100B8000A5C0E817F90749F09F014191DB014D939A
:100B9000BD01D9012C912111F4CF18A2043008F025
:100BA00003E00E8B3E01B2E06B0E711CC301B2D2AA
:100BB000CE010C96AFD2D987C88784E090E0801B25
:100BC00091099D878C87DB8BCA8B19A21AA21BA265
:100BD0001CA21DA2A401B501C601EBDD9983888387
:100BE000E114F10419F0F701D183C0830FB6F89432
:100BF0000F92809124078F5F809324078091720762
:100C000090917307892B69F5D0937307C09372078E
:100C1000809124078130A9F58EE497E06DD287E5B5
:100C200097E06AD280E697E067D289E697E064D2DF
:100C300085E497E061D28CE397E05ED28FE297E0A3
:100C40005BD286E297E058D285E497E090933B0729
:100C500080933A078CE397E09093390780933807A5
:100C600010C08091200781110CC0E0917207F091B3
:100C7000730796898E89891720F0D0937307C093E4
:100C8000720780911C078F5F80931C078E8990915B
:100C90002107981710F480932107F9E08F9FC00176
:100CA0001124B301825B984F39D20F900FBE80910F
:100CB0002007882349F0E0917207F0917307968925
:100CC0008E89981708F41BDE81E001C08FEFDF9159
:100CD000CF911F910F91FF90EF90DF90CF90BF9039
:100CE000AF909F908F907F906F905F904F900895FE
:100CF000EF92FF920F9388E1E82E87E0F82E00E054
:100D000020E030E045E550E06CE271E08BE098E0F7
:100D100005DF813089F4F8942FEF3FEF30931B0704
:100D200020931A078093200710922307109222071E
:100D30000F91FF90EF90A9CD0F91FF90EF90089544
:100D4000809117078F5F8093170708950FB6F89467
:100D50000F9280912207909123070F900FBE089564
:100D6000CF92DF92EF92FF920F931F93CF93DF9377
:100D700080911707811188C00091220710912307E5
:100D80000F5F1F4F109323070093220701151105D2
:100D9000B1F480913A0790913B0720913807309148
:100DA000390730933B0720933A0790933907809394
:100DB000380780911D078F5F80931D0754DE809157
:100DC0001A0790911B07C0E00817190708F44CC0D8
:100DD000D9E0E0913A07F0913B078081811103C08F
:100DE0008FEF9FEF11C0E0913A07F0913B0705802C
:100DF000F681E02DE680F780D70112968D919C91C7
:100E000013970817190728F490931B0780931A0764
:100E10002BC06701B2E0CB0ED11CC601D8D1F701BF
:100E200084899589892B19F0C7010C96D0D1D701F7
:100E300056969C9180912107891710F49093210771
:100E4000D99FC0011124B601825B984F67D1E09110
:100E50007207F0917307D70156969C91868998176F
:100E600008F4B7CFC1E0B5CFE0917207F0917307F6
:100E7000E689B9E0EB9FF0011124E25BF84F808135
:100E8000823040F0C1E006C080911F078F5F8093E1
:100E90001F07C0E080911E078111C1E08C2FDF91F8
:100EA000CF911F910F91FF90EF90DF90CF90089519
:100EB000EF92FF920F931F93CF93DF930FB6F894A7
:100EC0000F92809117078150809317078091170721
:100ED000882311F080E04CC0809124078823D1F34F
:100EE000C0E0D0E089E0F82EEE24E39480912F0753
:100EF000882339F1E0913407F0913507C681D78115
:100F0000CE010C9664D18E010E5F1F4FC8015FD1D8
:100F10009E8980912107891710F490932107F99EEB
:100F2000C0011124B801825B984FF8D0E09172079C
:100F3000F09173079E8986899817C0F2E0921E0788
:100F4000D5CFCD2B09F08FDDC0911F07CC2349F001
:100F5000D1E006DF8111D0931E07C150D1F7109266
:100F60001F0780911E07882309F4B4CFC8DC81E0F5
:100F70000F900FBEDF91CF911F910F91FF90EF90D7
:100F800008950F931F93CF93DF938C01EB01D8DE6D
:100F90002091220730912307F80140815181BA0145
:100FA0006C0F7D1F2417350728F46417750748F464
:100FB00091E004C091E06417750720F02617370709
:100FC00008F090E0F80171836083992321F0CB0150
:100FD000821B930B63DD6CDF811101C090DCDF911C
:100FE000CF911F910F910895CF93DF9300D0CDB78C
:100FF000DEB7009711F483DC09C089839A83A0DEF1
:1010000089819A814BDD54DF8823A9F30F900F90DB
:10101000DF91CF91089580912507882321F190DEFB
:10102000C091260745DFCC23B1F30FB6F8940F9299
:10103000E0912B07F0912C07C681D781CE01029653
:10104000C6D0809124078150809324078091250782
:101050008150809325070F900FBE8F89988D7FDB7D
:10106000CE017DDBD8CF80914E078230A0F247DCE5
:10107000D2CF80911707882321F081E080931E074B
:10108000089510921E078091210769E0482F50E0D3
:10109000649F9001659F300D1124F901E25BF84FC8
:1010A0009081911102C08150F1CFA181B28112963D
:1010B0000D90BC91A02DB283A1832F5A384FA21757
:1010C000B30731F412962D913C911397328321830B
:1010D00099E0949FF001959FF00D1124E25BF84F89
:1010E0000180F281E02D26813781309373072093B0
:1010F0007207809321070895FC01039692838183F0
:101100002FEF3FEF348323839683858390878783F4
:1011100010820895FC01118610860895CF93DF9305
:101120009C01FB01DC011196CD91DC911297D383D8
:10113000C2838C819D81958384838C819D81DC0118
:1011400013967C936E9312977D836C8331872087EF
:10115000F90180818F5F8083DF91CF9108950F9394
:101160001F93CF93DF938C01FB01808191818F3F8F
:101170002FEF920721F4E801AF81B8850EC0D801A6
:10118000139612962D913C911397E901488159814C
:101190008417950710F0D901F4CF12968D919C9188
:1011A000139793838283EC01FD83EC83B583A4833F
:1011B0001396FC93EE93129711870087F8018081B4
:1011C0008F5F8083DF91CF911F910F910895CF930F
:1011D000DF93FC01A085B1858281938124813581D3
:1011E000EC013D832C83C481D5819B838A83119636
:1011F0008D919C9112978E179F0721F41296DC9384
:10120000CE931197118610868C9181508C93DF912B
:10121000CF910895A1E21A2EAA1BBB1BFD010DC0A0
:10122000AA1FBB1FEE1FFF1FA217B307E407F50796
:1012300020F0A21BB30BE40BF50B661F771F881F72
:10124000991F1A9469F760957095809590959B0108
:10125000AC01BD01CF010895FC0105900020E9F724
:10126000809590958E0F9F1F0895AEE0B0E0EAE361
:10127000F9E0A1C28C01CA0146E04C831A830983BC
:1012800077FF02C060E070E8FB013197FE83ED83D9
:10129000A901BC01CE01019611D04D815E8157FD9F
:1012A0000AC02F813885421753070CF49A01F801C0
:1012B000E20FF31F10822E96E4E099C2ACE0B0E09A
:1012C000E3E6F9E06AC27C016B018A01FC01178246
:1012D0001682838181FFB0C1CE0101964C01F701D6
:1012E0009381F60193FD859193FF81916F0188238E
:1012F00009F49EC1853239F493FD859193FF819164
:101300006F01853221F4B70190E0B1D1E8CF512CC3
:10131000312C20E02032A0F48B3269F030F480329E
:1013200059F0833269F420612CC08D3239F080335A
:1013300039F4216026C02260246023C0286021C0C7
:1013400027FD27C030ED380F3A3078F426FF06C06D
:10135000FAE05F9E300D1124532E13C08AE0389EB0
:10136000300D1124332E20620CC08E3221F426FD64
:101370005FC1206406C08C3611F4206802C0883634
:1013800041F4F60193FD859193FF81916F018111E5
:10139000C1CF982F9F7D9554933028F40C5F1F4F39
:1013A000FFE3F9830DC0833631F0833771F0833565
:1013B00009F057C021C0F801808189830E5F1F4F5B
:1013C00044244394512C540114C03801F2E06F0EB0
:1013D000711CF801A080B18026FF03C0652D70E06C
:1013E00002C06FEF7FEFC5012C8736D12C0183013E
:1013F0002C852F77222E16C03801F2E06F0E711C5B
:10140000F801A080B18026FF03C0652D70E002C006
:101410006FEF7FEFC5012C8714D12C012C8520683C
:10142000222E830123FC19C0832D90E04816590613
:10143000A0F4B70180E290E01AD13A94F5CFF5011B
:1014400027FC859127FE81915F01B70190E00FD1C4
:1014500031103A94F1E04F1A51084114510479F7D0
:10146000DEC0843611F0893631F5F80127FF07C058
:1014700060817181828193810C5F1F4F08C0608100
:101480007181072E000C880B990B0E5F1F4F2F7672
:10149000722E97FF09C090958095709561957F4F4A
:1014A0008F4F9F4F2068722E2AE030E0A40117D1A1
:1014B000A82EA81843C0853729F42F7EB22E2AE023
:1014C00030E025C0F22FF97FBF2E8F36C1F018F41F
:1014D000883579F0ADC0803719F0883721F0A8C081
:1014E0002F2F2061B22EB4FE0DC08B2D8460B82E3C
:1014F00009C024FF0AC09F2F9660B92E06C028E0BD
:1015000030E005C020E130E002C020E132E0F80127
:10151000B7FE07C060817181828193810C5F1F4F8C
:1015200006C06081718180E090E00E5F1F4FA401D2
:10153000D6D0A82EA818FB2DFF777F2E76FE0BC0E5
:10154000372D3E7FA51450F474FE0AC072FC08C00B
:10155000372D3E7E05C0BA2C372D03C0BA2C01C0F2
:10156000B52C34FF0DC0FE01EA0DF11D80818033E2
:1015700011F4397E09C032FF06C0B394B39404C09D
:10158000832F867809F0B39433FD12C030FF06C074
:101590005A2CB31418F4530C5B18B32CB31460F426
:1015A000B70180E290E03C8762D0B3943C85F6CFEF
:1015B000B31410F43B1801C0312C34FF11C0B70133
:1015C00080E390E03C8753D03C8532FF16C031FD6C
:1015D00003C088E790E002C088E590E0B7010CC046
:1015E000832F867851F031FF02C08BE201C080E288
:1015F00037FD8DE2B70190E03AD0A51430F4B70181
:1016000080E390E034D05A94F8CFAA94F401EA0D24
:10161000F11D8081B70190E02AD0A110F6CF3320D0
:1016200009F45DCEB70180E290E021D03A94F7CF83
:10163000F7018681978102C08FEF9FEF2C96E2E140
:10164000C8C0FC010590615070400110D8F780952A
:1016500090958E0F9F1F0895FC016150704001907E
:101660000110D8F7809590958E0F9F1F08950F93C6
:101670001F93CF93DF93FB01238121FD03C08FEFE5
:101680009FEF28C022FF16C04681578124813581F3
:101690004217530744F4A081B1819D012F5F3F4F52
:1016A000318320838C93268137812F5F3F4F37838F
:1016B000268310C0EB01092F182F0084F185E02D3F
:1016C0000995892BE1F68E819F8101969F838E83F8
:1016D000812F902FDF91CF911F910F910895FA01E3
:1016E000AA27283051F1203181F1E8946F936E7F61
:1016F0006E5F7F4F8F4F9F4FAF4FB1E03ED0B4E052
:101700003CD0670F781F891F9A1FA11D680F791F92
:101710008A1F911DA11D6A0F711D811D911DA11DA3
:1017200020D009F468943F912AE0269F11243019B3
:10173000305D3193DEF6CF010895462F4770405D4E
:101740004193B3E00FD0C9F7F6CF462F4F70405DFD
:101750004A3318F0495D31FD4052419302D0A9F758
:10176000EACFB4E0A6959795879577956795BA9552
:10177000C9F700976105710508959B01AC010A2E18
:1017800006945795479537952795BA95C9F7620FEF
:10179000731F841F951FA01D08952F923F924F9293
:1017A0005F926F927F928F929F92AF92BF92CF92F1
:1017B000DF92EF92FF920F931F93CF93DF93CDB7FA
:1017C000DEB7CA1BDB0B0FB6F894DEBF0FBECDBF72
:1017D00009942A88398848885F846E847D848C8443
:1017E0009B84AA84B984C884DF80EE80FD800C814C
:1017F0001B81AA81B981CE0FD11D0FB6F894DEBF2F
:0C1800000FBECDBFED010895F894FFCF9E
:10180C00DB05436F6D6D616E64207461736B0D0A43
:10181C0000636861722025640D0A00477265656E6D
:10182C004C454400436F6D6D616E640049444C45FA
:02183C000000AA
:00000001FF
