:100000001DC1000038C1000036C1000034C100002D
:1000100032C1000030C100002EC100002CC1000020
:100020002AC1000028C1000026C100000C94C110A4
:1000300022C1000020C100000C94390B1CC100003B
:100040001AC1000018C100000C94920E0C94EA0E24
:1000500012C1000010C100000EC100000CC1000060
:100060000AC1000008C100006D6D635F706F7765A5
:10007000725F6F66660D0A006D6D635F706F776506
:10008000725F6F6E0D0A006D6D635F696E69740D4E
:100090000A000D0A002025303258002530386C58EF
:1000A0003A000D0A00532F4E3A2025730D0A004DD9
:1000B0006F64656C3A2025730D0A00534420537415
:1000C000617475733A0D0A004F43523A0D0A0043AA
:1000D00049443A0D0A004353443A0D0A0043617201
:1000E0006420747970653A2025750D0A00457261A7
:1000F000736520626C6F636B3A20256C75207365A5
:1001000063746F72730D0A004472697665207369B7
:100110007A653A20256C7520736563746F72730D70
:100120000A004672656520486561702053697A65EA
:100130003A2025750D0A006D6F756E742072633D4F
:1001400025640D0A006469736B20692072633D2584
:10015000640D0A00436F756C64206E6F7420616CCF
:100160006C6F636174652046415446530D0A004329
:100170006F6D6D616E64207461736B0D0A000D0A02
:100180004672656520486561702053697A653A203A
:1001900025750D0A0062726B76616C206164647271
:1001A0003A20202020202020202020202025780DEB
:1001B0000A006D616C6C6F63204865617020656E2C
:1001C00064202020616464723A2025780D0A006D55
:1001D000616C6C6F63204865617020737461727428
:1001E00020616464723A2025780D0A0048656170C8
:1001F00020656E64202020616464723A20202020F3
:100200002020202025780D0A004865617020737435
:1002100061727420616464723A20202020202020C2
:100220002025780D0A005374617274696E6720731B
:1002300063686564756C65720D0A000011241FBE49
:10024000CFEFD8E0DEBFCDBF11E0A0E0B1E0EAE340
:10025000FFE202C005900D92A033B107D9F726E066
:10026000A0E3B1E001C01D92A63FB207E1F70E94F2
:100270005D0B0C949B17C4CE811101C0CDC581E0EC
:100280000895811101C006C581E008950F931F9361
:10029000FB01BA01A9019801811104C0CF011F918E
:1002A0000F91BDC584E01F910F9108950F931F9387
:1002B000FB01BA01A9019801811104C0CF011F916E
:1002C0000F91EFC584E01F910F910895962F811132
:1002D00003C0BA01892F4CC684E00895F7C7FC011A
:1002E0006381862F90E0A0E0B0E0BA2FA92F982F6D
:1002F00088272281822BBA2FA92F982F8827218126
:10030000822BBA2FA92F982F88272081BC01CD01DD
:10031000622B0895FC012081318121153105B1F056
:10032000F901BF014191413270F04A33D1F7F9012F
:1003300041916E177F0751F4403341F42E5F3F4FD8
:10034000FC013183208380E090E008958FEF9FEFE0
:1003500008958F929F92AF92BF92CF92DF92EF92C9
:10036000FF920F931F93CF93DF93EC018BA49CA478
:10037000ADA4BEA46C018FE2C80ED11C01E010E058
:10038000A5019401B601898191DF81112FC01B82E3
:100390008F8D98A1A9A1BAA1B501A401481B590B41
:1003A0006A0B7B0B8F89988DA98DBA8D48175907D9
:1003B0006A077B0710F080E01AC0EA80F12C82E027
:1003C000E816F104C0F38F89988DA98DBA8D880E37
:1003D000991EAA1EBB1E01E010E0A5019401B60102
:1003E000898164DF81E0E81AF108E9CF81E0DF91DB
:1003F000CF911F910F91FF90EF90DF90CF90BF9022
:10040000AF909F908F900895CF92DF92EF92FF92DE
:100410000F931F93CF93DF93EC016A017B018BA5B0
:100420009CA5ADA5BEA5481759076A077B07F9F03B
:100430008B81811111C001E010E0A7019601BE017E
:10044000615D7F4F898122DF882359F081E0CC24D0
:10045000CA94DC2C760106C0CE017BDF811108C076
:10046000EACF80E0CBA6DCA6EDA6FEA601C080E028
:10047000DF91CF911F910F91FF90EF90DF90CF9080
:100480000895CF93DF93EC011B828FEF9FEFDC0188
:100490008BA79CA7ADA7BEA7CE01B6DF81112BC04D
:1004A000FE01E25DFD4F808190E0982F8827319713
:1004B0002081822B85359A4A01F58FA5893E29F046
:1004C0008B3EF9F489A98039E1F4CE018B599F4F15
:1004D00006DFDC01CB01BB2786349144A445B1057E
:1004E00071F0CE018F579F4FFADE66347144844518
:1004F000934339F404C084E005C083E003C080E086
:1005000001C082E0DF91CF9108952F923F924F92E8
:100510005F926F927F928F929F92AF92BF92CF9293
:10052000DF92EF92FF920F931F93CF93DF93CDB79C
:10053000DEB76E970FB6F894DEBF0FBECDBF7B015E
:10054000DB011D921C924E8FE5DE6C014E8D97FDF6
:100550004BC2FC01EE0FFF1FEE5CFE4F00811181CC
:100560000115110509F442C2F701118300834E7F82
:10057000F42ED8018C91882361F011968C917CDE49
:1005800080FD07C0FF2009F433C282FF31C28AE038
:1005900037C2F8011082C1828C2D73DE80FD2AC221
:1005A000FF2011F082FDF3CF40E050E0BA01C80116
:1005B00068DF823009F041C09E012F5F3F4F690123
:1005C00078013BE0E31A3EEFF30A48014BEC841A52
:1005D0004DEF940A5601F70134978081882319F072
:1005E000C7017DDE03C060E070E0CB01D5016D93F3
:1005F0007D938D939D935D01B0E1EB0EF11CE814AA
:10060000F90449F77E01E1E1EE0EF11CD6014D90AF
:100610005D906D907D906D014114510461047104F1
:1006200039F0B301A201C8012CDF823010F40FC0F1
:1006300083E0CE14DF0451F7DFC1412C512C32018D
:10064000843009F4DCC1823010F08DE0D9C1F801AA
:1006500083AD90E0982F882722AD822B81159240A0
:10066000A1F7F801EA5BFF4F8080912C982C882439
:1006700031978081882A8114910419F0A12CB12C22
:1006800006C0C8018D5A9F4F2ADE4B015C01D8017C
:1006900057968D929D92AD92BC925A97DF964C914F
:1006A000DF9712964C9312978FEF840F823068F683
:1006B000DC96BC91B98B8B2F90E0F80192878187F3
:1006C000009719F29C012150310982239323892B31
:1006D00009F0BBCFEF5BFF4F808190E0982F882718
:1006E000319720811C01222AD80118963C922E9223
:1006F0001797C1018F709927892B09F0A6CF3396E0
:10070000808190E0982F882731972081822B6C017F
:10071000E12CF12C892B41F4C801815B9F4F4E8F56
:10072000DEDD6B017C014E8DD801DE96EC91DE970B
:10073000F0E0FE2FEE27DD968C91E82B309709F440
:1007400084CFA42FB0E0A50194010E94AA146E8B5F
:100750007F8B888F998F9F0140E050E02A8F3B8FDD
:100760004C8F5D8FC101B4E096958795BA95E1F7FE
:10077000280F391F411D511DDA01C9012E893F89FA
:10078000488D598D280F391F4A1F5B1F2A8B3B8BC1
:100790004C8B5D8BC216D306E406F50608F455CFE4
:1007A000C701B601621B730B840B950BA9892A2F15
:1007B00030E040E050E00E948814211531054105E9
:1007C000510509F442CF263FBFEF3B0741055105D4
:1007D00048F4263FEFE03E074105510530F0F2E0D6
:1007E000F98B05C083E0898B02C091E0998B690188
:1007F0007A01A2E0CA0ED11CE11CF11CF801C38AE7
:10080000D48AE58AF68A438E548E658E768E8A8DDA
:100810009B8DAC8DBD8D840D951DA61DB71D878F3D
:1008200090A3A1A3B2A34A895B896C897D89440DF9
:10083000551D661D771D47A350A761A772A7F989AB
:10084000F33019F5F801E65AFF4F808190E0982FB8
:10085000882731972081822B892B09F0F6CE232817
:1008600009F0F3CEC801855A9F4F39DDD801939620
:100870006D937D938D939C93969772E0CC0CDD1CC9
:10088000EE1CFF1C7A95D1F72DC0232809F4DDCE8C
:100890002E893F89488D598D820F931FA41FB51F44
:1008A000F80183A394A3A5A3B6A3F989F23029F490
:1008B000CC0CDD1CEE1CFF1C15C0A3E0B0E0A701B2
:1008C00096010E94AA14DC01CB01B695A7959795D5
:1008D000879521E0C222DD24EE24FF24C80ED91E14
:1008E000EA1EFB1E3FEFC30E31E0D31EE11CF11CDC
:1008F00049E0F694E794D794C7944A95D1F78C14BD
:100900009D04AE04BF0408F4A0CE8FEF9FEFDC017E
:10091000F8018787908BA18BB28B83879487A587FB
:10092000B68780E88483F989F33009F04CC0F80178
:10093000E05AFF4F808190E0982F882731972081DF
:10094000822B019709F03FC0B301A2014F5F5F4FB7
:100950006F4F7F4FC80158DD811135C0D801149603
:100960001C92F801E25DFD4F808190E0982F88276E
:1009700031972081822B85359A4A29F5C8018F96B7
:10098000AEDC6235724581469144E9F4C8018D5E62
:100990009D4FA5DC6237724781449146A1F4C8019E
:1009A000895E9D4F9CDCD8011F966D937D938D933E
:1009B0009C935297C801855E9D4F91DCF801638737
:1009C000748785879687E989D801EC9380913001F7
:1009D00090913101019690933101809330011696E8
:1009E0009C938E93159704C08BE00AC08CE008C0DE
:1009F00080E006C083E004C0843009F026CE81E0A8
:100A00006E960FB6F894DEBF0FBECDBFDF91CF91CB
:100A10001F910F91FF90EF90DF90CF90BF90AF901C
:100A20009F908F907F906F905F904F903F902F900E
:100A30000895CF93DF93CDB7DEB727970FB6F8941D
:100A4000DEBF0FBECDBF9C838B837E836D837A8395
:100A50006983CE0101964F835DDC4F8197FD21C0F4
:100A6000880F991FFC01EE5CFE4F0190F081E02D94
:100A7000309709F01082EB81FC81309709F01082E9
:100A8000DC01AE5CBE4FED93FC93EF2B61F0413087
:100A900051F440E0BE016D5F7F4FCE01059635DD1C
:100AA00003C08BE001C080E027960FB6F894DEBF4C
:100AB0000FBECDBFDF91CF9108958EBD0DB407FE5F
:100AC000FDCF8EB508956AE070E00E9474146093C3
:100AD00035018FEFF2DF282F8F3F21F08091350114
:100AE0008111F7CF81E090E02F3F11F080E090E09E
:100AF0000895299A8FEFE1CFCF93DF9300D0CDB740
:100B0000DEB729988FEFD9DF84EF91E0DCDF009723
:100B100031F489839A83EDDF89819A8102C081E073
:100B200090E00F900F90DF91CF910895FF920F9377
:100B30001F93CF93DF93C82FD42F152F062FF72E97
:100B400087FF08C040E050E0BA0187E3EFDF823062
:100B500050F5CF77CC3071F48C2F8064AEDF8F2DC1
:100B6000ACDF802FAADF812FA8DF8D2FA6DFCC235B
:100B700059F006C0BEDFC0DF892B71F78FEF13C0BD
:100B8000C83021F081E003C085E901C087E895DF26
:100B9000CC3011F48FEF91DFCAE08FEF8EDF87FF4B
:100BA00002C0C150D1F7DF91CF911F910F91FF90FB
:100BB00008958CB58F7B8CBD88E690E00C94750E03
:100BC0000F931F93CF93DF93EC018B0184E180930C
:100BD00036018FEF72DF8F3F29F48091360181114A
:100BE000F8CF1CC08E3FD1F48FEF8EBD0DB407FE41
:100BF000FDCF9EB598838EBD0DB407FEFDCF229626
:100C00009EB5FE01319790830250110971F78FEF65
:100C100054DF8FEF52DF81E090E002C080E090E08F
:100C2000DF91CF911F910F9108951F93CF93DF9381
:100C3000EC01162F84EF91E046DF009739F1812F08
:100C40003CDF1D3F09F1CE019E5F28812EBD0DB412
:100C500007FEFDCF2296FE01319720812EBD0DB4F7
:100C600007FEFDCFC817D90781F78FEF26DF8FEF7B
:100C700024DF8FEF22DF8F7131E020E0853009F033
:100C800030E0832F922F02C081E090E0DF91CF917E
:100C90001F910895DF92EF92FF920F931F93CF93CE
:100CA000DF9300D000D0CDB7DEB787E890E00E9498
:100CB000750E7FDF8AE080933601809136018111C5
:100CC000FCCF8091060181FD99C088E790E00E94E9
:100CD000750E84B18A6284B92498219A8CE18CBD06
:100CE0008CB580648CBD2198219A1AE08FEFE5DEE7
:100CF0001150E1F740E050E0BA0180E017DF8130A9
:100D000009F06DC084E6809336014AEA51E060E064
:100D100070E088E00BDF813009F03CC08E010F5F8E
:100D20001F4F780184E0D82ED00E8FEFC6DEF7017A
:100D300081937F01DE12F9CF8B81813009F04FC0A2
:100D40008C818A3A09F04BC080913601811106C02E
:100D500080913601882309F442C009C040E050E088
:100D600060E070E489EAE2DE8111EECFF1CF40E08D
:100D700050E0BA018AE3DADE811131C08FEF9DDEE7
:100D8000F80181938F01DE12F9CF898186FD29C098
:100D900014E028C040E050E0BA0189EAC7DE8230A2
:100DA00018F011E001E002C012E009EA809136017A
:100DB000811105C080913601882389F008C040E088
:100DC00050E0BA01802FB2DE8111F0CFF3CF40E0C6
:100DD00052E060E070E080E1A9DE882319F010E0C5
:100DE00001C01CE01093340184DE112331F08091A6
:100DF00006018E7F8093060101C0DBDE8091060133
:100E00000F900F900F900F90DF91CF911F910F9146
:100E1000FF90EF90DF900895809106010895EF9282
:100E2000FF921F93CF93DF937C01E901209781F11B
:100E30008091060180FD2EC08091340183FD07C0A2
:100E400089E0440F551F661F771F8A95D1F7C2307E
:100E5000D10510F411E101C012E1812F67DE81118B
:100E600011C060E072E0C701ABDE892B21F08EEF8C
:100E7000F81A2197B1F7123129F440E050E0BA0195
:100E80008CE054DE36DE81E0CD2B29F480E003C017
:100E900084E001C083E0DF91CF911F91FF90EF903C
:100EA0000895CF92DF92EF92FF920F931F93CF930B
:100EB000DF938C016A017B01E901209709F44AC0A4
:100EC0008091060180FD48C08091060182FD46C0E8
:100ED0008091340183FD07C099E0CC0CDD1CEE1C31
:100EE000FF1C9A95D1F7C130D10589F4B701A6014D
:100EF00088E11CDE811128C06EEFC80196DE31E06A
:100F000020E0892B09F030E0C32FD22F1DC086705E
:100F100029F0AE0160E070E087E908DEB701A601C4
:100F200089E104DE811110C06CEFC8017EDE892BDF
:100F300019F01E5F2197C1F76DEF80E090E075DE3C
:100F4000892B11F4C1E0D0E0D4DD81E0CD2B39F460
:100F500080E005C084E003C083E001C082E0DF914F
:100F6000CF911F910F91FF90EF90DF90CF90089558
:100F7000CF92DF92EF92FF920F931F93CF93DF9365
:100F8000CDB7DEB760970FB6F894DEBF0FBECDBF0A
:100F90009091060190FD87C18B01873009F47CC1D7
:100FA00050F4813001F1E8F0833009F481C08430DD
:100FB00009F4F0C07AC1843309F43CC158F4823397
:100FC00009F432C1833309F070C140E050E0BA0146
:100FD00089E034C1853309F437C1863309F448C147
:100FE00064C18ADD52C140E050E0BA0189E09EDD73
:100FF00081114FC160E170E0CE010196E1DD892BE6
:1010000009F447C199819295969596959370888534
:1010100049852A859130E1F48F7390E0A0E0B0E03B
:10102000DC01992788270196A11DB11D50E0542F9E
:101030004427BA01620F711D860F971FA11DB11DB4
:10104000FAE0880F991FAA1FBB1FFA95D1F729C094
:101050004295469546954370F4E08F9FC001112458
:10106000840F911D01964F81437050E0542F442707
:10107000550F550F840F951FA0E0B0E03E81432F20
:101080004F703B85331F3327331F340F2370220FDC
:10109000230F275004C0880F991FAA1FBB1F2A9532
:1010A000D2F7F80180839183A283B38310E0F2C06A
:1010B000F090340140E050E0BA01F2FE1DC08DE82E
:1010C00035DD8111E6C08FEFF8DC60E170E0CE0124
:1010D000019676DD892B09F4DCC050E3F52E8FEF05
:1010E000ECDCFA94F110FBCF2B8522952F7080E178
:1010F00090E0A0E0B0E0CECF89E018DD8111C9C05A
:1011000060E170E0CE0101965BDD892B09F4C1C07E
:101110008B852C85F1FE1FC0221F2227221F422F04
:1011200050E04F5F5F4F8F73480F511D480F511DA7
:101130008E858295869586958370815002C0440F76
:10114000551F8A95E2F760E070E0F8014083518313
:1011500062837383ABCF922F93702295269527706D
:1011600030E0F8E09F9F200D311D11242F5F3F4F8D
:101170008C7790E095958795959587950196289F12
:10118000A001299F500D389F500D1124CA01A0E0E5
:10119000B0E087CF80913401867011F411E086C0F1
:1011A000BE016F5F7F4F83E3E3DE8111F7CF89815B
:1011B000829586958695837019F48B8586FFEECF90
:1011C000F8014081518162817381C480D580E680BD
:1011D000F7808091340183FD0EC089E0440F551FD4
:1011E000661F771F8A95D1F799E0CC0CDD1CEE1CA9
:1011F000FF1C9A95D1F780E299DC8111CFCFB7011E
:10120000A60181E293DC8111C9CF40E050E0BA0130
:1012100086E28CDC8111C2CF80E395E754DC11E0DB
:10122000892B09F443C004C080913401FB01808301
:1012300010E03CC040E050E0BA018AE077DC811168
:1012400028C060E170E01FC040E050E0BA018AE3CE
:101250006DDC81111EC07801F4E0EF0EF11C8FEF00
:101260002CDCF80181938F01EE15FF05C1F71ECF2D
:1012700040E050E0BA018DE859DC81110AC08FEFDF
:101280001CDC60E470E0C8019BDC11E0892B11F0EC
:101290000DCF11E02EDC0AC08CDC8091060181604C
:1012A00080930601C5CF13E001C014E0812F609642
:1012B0000FB6F894DEBF0FBECDBFDF91CF911F9167
:1012C0000F91FF90EF90DF90CF90089580913601BD
:1012D000882319F08150809336018091350188234D
:1012E00019F081508093350180910601897F8093A8
:1012F000060108958F929F92BF92CF92DF92EF9254
:10130000FF920F931F93CF93DF931F92CDB7DEB75A
:10131000F82EE22E7F936F935F934F932BE930E08B
:101320003F932F939983B0D28F2C9981992E0F9050
:101330000F900F900F900F900F900F2D192FBF2C23
:1013400085E9C82E80E0D82E802F8F198E1568F47D
:10135000F80181918F011F928F93DF92CF9294D2E7
:101360000F900F900F900F90EFCF60E280ED96E01E
:101370004AD3882D8B198E1548F4F40161914F01E1
:1013800080EE860F8F3590F36EE2F0CF82E990E029
:101390000F90DF91CF911F910F91FF90EF90DF9011
:1013A000CF90BF909F908F90A1C2CF93DF9300D03A
:1013B000CDB7DEB7259A0E943E129A8389832D9A73
:1013C00064E670E0CE0101960E9459132D9868EEF4
:1013D00073E0CE0101960E945913F1CFCF93DF93B2
:1013E00000D000D000D0CDB7DEB78FE691E07ED23E
:1013F0008FE292E034D58C01892B19F484E591E0D9
:1014000075D28FEAE82E80E0F82E9DEDC92E90E08F
:10141000D92E2DEEA22E20E0B22E38E0832E31E020
:10142000932E45E4642E41E0742E512CBE016B5F77
:101430007F4F80ED96E0BDD2811105C081E090E044
:101440000E948C13F3CF6D816D30B1F0683021F4C0
:10145000552061F35A940CC0603240F3852D90E022
:10146000843091051CF75394FC01E05AFE4F6083D1
:1014700080ED96E0C8D2DACFE52DF0E0E05AFE4FDD
:10148000108282EA90E032D280916001863689F043
:1014900058F4843609F0E9C080E00E9441011F92AF
:1014A0008F937F926F92DBC0883669F0833789F023
:1014B000DCC041E068E171E0C801BBDA1F928F93A4
:1014C000A7E3B1E0CAC0FCD49F938F93A2E2B1E03E
:1014D000C4C0AE014F5F5F4F61E080E00E946601D3
:1014E000811111C08C818F938B818F938A818F930F
:1014F00089818F939F928F92C7D10F900F900F90F9
:101500000F900F900F90AE014F5F5F4F63E080E050
:101510000E946601811111C08C818F938B818F9302
:101520008A818F9389818F93BF92AF92ADD10F90B3
:101530000F900F900F900F900F90AE014A5F5F4F8A
:1015400062E380E00E94660181110AC08E811F92D1
:101550008F93DF92CF9298D10F900F900F900F90B2
:1015600047E351E063E380E00E94660181110AC015
:1015700086ED90E0BBD120E140E050E0BA0187E386
:1015800091E0B8DE47E351E064E380E00E94660149
:1015900081110AC08FEC90E0A9D120E140E050E039
:1015A000BA0187E391E0A6DE47E351E065E380E01E
:1015B0000E94660181110AC088EC90E097D124E076
:1015C00040E050E0BA0187E391E094DE47E351E068
:1015D00066E380E00E9466018823B1F047E351E0B2
:1015E0006DE380E00E946601811127C087E391E0EE
:1015F00010925F019F938F93FF92EF9245D10F90CE
:101600000F900F900F9019C08BEB90E06FD1212CB1
:10161000312C2101C101895C9E4F20E1B201A10161
:1016200069DE90E1290E311C411C511CA0E42A16F0
:1016300031044104510471F7D1CF47E351E06EE327
:1016400080E00E9466018111F0CE87E391E0109264
:101650004B019F938F93A5EAB0E0BF93AF9314D152
:101660000F900F900F900F90E0CE87E091E0ABD0FD
:10167000DCCE1F920F920FB60F9211242F933F933F
:101680004F935F936F937F938F939F93AF93BF938A
:10169000EF93FF930E946E01FF91EF91BF91AF9185
:1016A0009F918F917F916F915F914F913F912F917A
:1016B0000F900FBE0F901F901895CF93DF93CDB76B
:1016C000DEB7A2970FB6F894DEBF0FBECDBF229A49
:1016D0002A982A9A80E1E82EF12C00E210E020E01E
:1016E00036E940E050E060E0CE010196E1D182E2CF
:1016F000FE013196A0EDB6E001900D928A95E1F7DA
:101700008DE487BD82E084BD95E095BD80936E0039
:1017100086E292E0EAD2E12CF12C03E020E030E016
:1017200040E850E069E171E085ED99E08DD504E095
:1017300020E030E040E051E062E271E08EEE99E0BE
:1017400083D58091F6061F928F9389E092E09F9354
:101750008F93A1D2809100001F928F938CEE91E025
:101760009F938F9398D2809103018F938091020170
:101770008F938FEC91E09F938F938DD28091010195
:101780008F93809100018F9382EB91E09F938F93D1
:1017900082D28091F3068F938091F2068F9385E930
:1017A00091E09F938F9377D28BD39F938F938EE704
:1017B00091E09F938F936FD233D60FB6F894DEBF2C
:1017C0000FBECDBFFFCFCF93DF93FC010190002070
:1017D000E9F7DC019F01215031094DED56E0A217D8
:1017E000B30709F44EC08D910FB6F8940F92E091B3
:1017F000DD06F091DE060F900FBE6091E706709156
:10180000E806E617F707B1F4EFEFF9EF3197F1F7D4
:1018100000C000000FB6F8940F92E091DD06F09141
:10182000DE060F900FBE6091E7067091E806E6179E
:10183000F707A9F2FA01C281D3818883828193815B
:10184000019693838283608571858617970721F4BB
:1018500086819781938382830FB6F8940F9280815B
:1018600091810196918380830F900FBE8091D00665
:10187000823008F0B4CF8091C10080628093C100B3
:10188000AECFDF91CF910895EF92FF920F931F9308
:10189000CF93DF93CDB7DEB78E01075F1F4FF801FF
:1018A000E190F1908F018091ED06813011F4B7D372
:1018B000FACF81E08093ED066091EB067091EC0623
:1018C0009801A7018091E9069091EA060E94CC1444
:1018D0008091E9069091EA0676DF1092ED06DF919D
:1018E000CF911F910F91FF90EF900895CF93DF93C9
:1018F000D82FC92F0E94C314ED2FFC2FBF01680FF2
:10190000791F4DED56E0E617F70709F44FC08491B3
:101910000FB6F8940F92A091DD06B091DE060F90FD
:101920000FBE2091E7063091E806A217B307B1F485
:10193000AFEFB9EF1197F1F700C000000FB6F894C0
:101940000F92A091DD06B091DE060F900FBE2091A0
:10195000E7063091E806A217B30731F1EA01AA8140
:10196000BB818C932A813B812F5F3F4F3B832A832E
:10197000888599852817390721F48E819F819B835B
:101980008A830FB6F8940F92888199810196998382
:1019900088830F900FBE8091D006823028F49091FA
:1019A000C10090629093C1003196ADCFDF91CF918D
:1019B00008950FB6F8940F92FC01218132810F90A7
:1019C0000FBE232BF1F00196FC01A481B5812D916E
:1019D000B583A48380859185A817B90721F48681F2
:1019E0009781958384830FB6F8940F9280819181BB
:1019F0000197918380830F900FBEFB01208381E0CC
:101A0000089580E00895CF93DF93DC010FB6F8943A
:101A10000F921D962D913C911E970F900FBE5796D9
:101A20008D919C91589728173907B1F48FEF99EF52
:101A30000197F1F700C000000FB6F8940F921D96C1
:101A40002D913C911E970F900FBE57968D919C91B2
:101A500058972817390731F1FD013D96C281D3818E
:101A60006883828193810196938382832085318567
:101A70008217930721F486819781938382830FB61F
:101A8000F8940F92808191810196918380830F90C9
:101A90000FBE8C91823040F48091C10080628093AF
:101AA000C10002C080E001C081E0DF91CF910895C4
:101AB000BF92CF92DF92EF92FF920F931F93CF933B
:101AC000DF93CDB7DEB7A6970FB6F894DEBF0FBE93
:101AD000CDBF6C01B62EC7012BA33CA34DA35EA3C3
:101AE000BED12BA13CA14DA15EA10097A9F0FE01A2
:101AF00032960FB6F8940F921182108293838283EC
:101B000095838483978386838E0D9F1D918780871D
:101B1000F386E2860F900FBEC8012BA33CA34DA312
:101B20005EA39DD12BA13CA14DA15EA10097A9F080
:101B3000FE013E960FB6F8940F92118210829383A5
:101B400082839583848397838683800F911F9187F7
:101B50008087138702870F900FBEC8012BA33CA379
:101B60004DA35EA37CD19B8F8A8FB9821D8F0C8F72
:101B70001E8E2BA13CA14DA15EA12F8F38A349A39E
:101B80005AA30FB6F8940F92BB2061F181E0B8120E
:101B90004FC01092C5001092C400549A80EC8093FC
:101BA000C20088E98093C100DA01C901805C9D4BC5
:101BB000A04FBF4FBC01CD01E3E0660F771F881F28
:101BC000991FEA95D1F7F4E0220F331F441F551FE8
:101BD000FA95D1F79DD6215031093093C500209355
:101BE000C40026C0DA01C90180589B47A14EBF4FEF
:101BF000BC01CD01A2E0660F771F881F991FAA952F
:101C0000D1F7B3E0220F331F441F551FBA95D1F708
:101C10007FD6215031093093C5002093C40082E063
:101C20008093C00088E98093C1008EE08093C20059
:101C30000F900FBE82E2FE013196D60101900D9207
:101C40008A95E1F7C601A6960FB6F894DEBF0FBEDF
:101C5000CDBFDF91CF911F910F91FF90EF90DF905B
:101C6000CF90BF900895DC010D900020E9F7FC01B2
:101C7000CD010197E817F90769F021913091C00073
:101C800035FD05C032E43A95F1F700C0F7CF209357
:101C9000C600F0CF0895CF93DF93CDB7DEB79E0196
:101CA0002B5F3F4FF901419151919F018091ED06CA
:101CB000813029F4F2E4FA95F1F700C0F7CF81E022
:101CC0008093ED066091EB067091EC068091E90639
:101CD0009091EA0661D68091E9069091EA06C3DF09
:101CE0001092ED06DF91CF910895CF93DF93D82F17
:101CF000C92F49D6ED2FFC2F8E0F9F1FE817F9072C
:101D000071F024913091C00035FD05C032E43A9560
:101D1000F1F700C0F7CF2093C6003196EFCFDF91E7
:101D2000CF9108951F920F920FB60F9211242F9307
:101D30003F934F935F938F939F93AF93BF93EF9393
:101D4000FF938091C0008C7139F08091C00087FFB3
:101D500032C08091C600F9CF8091C6000FB6F894CA
:101D60000F924091D1065091D2060F900FBE209154
:101D7000DB063091DC0642175307E9F0E1EDF6E0AF
:101D8000A281B3818C938281938101969383828314
:101D9000208531858217930721F48681978193836B
:101DA00082830FB6F8940F9280819181019691837E
:101DB00080830F900FBEFF91EF91BF91AF919F91E4
:101DC0008F915F914F913F912F910F900FBE0F9088
:101DD0001F9018951F920F920FB60F9211242F93F8
:101DE0008F939F93AF93BF93EF93FF930FB6F894A6
:101DF0000F928091DD069091DE060F900FBE892B29
:101E000031F48091C1008F7D8093C1001CC0EDED45
:101E1000F6E0A481B5812D91B583A4838085918559
:101E2000A817B90721F486819781958384830FB61B
:101E3000F8940F92808191810197918380830F9014
:101E40000FBE2093C600FF91EF91BF91AF919F917C
:101E50008F912F910F900FBE0F901F901895CF93D9
:101E6000DF93EC0105D38091650190916601892B88
:101E700031F48AE691E090936601809365012091A8
:101E8000670130916801CE01820F931F833145E0D5
:101E9000940770F42817390758F4C0916501D09160
:101EA0006601C20FD31F909368018093670102C03F
:101EB000C0E0D0E095D3CE01DF91CF910895089591
:101EC000209167013091680183E195E0821B930BBB
:101ED000089531E1FC013083319722E2208331976C
:101EE000A3E3A08331976083319770833197108289
:101EF000319760E8608331971082319762E06083A8
:101F0000319763E06083319764E06083319765E0E7
:101F10006083319766E06083319767E06083319733
:101F200068E06083319769E06083319760E16083A6
:101F300031973083319732E13083319733E1308309
:101F4000319734E13083319735E13083319736E191
:101F50003083319737E13083319738E130833197DF
:101F600039E13083319730E23083319731E2308389
:101F700031972083319723E2208331974083319733
:101F80005083319726E22083319727E220833197CF
:101F900028E22083319729E22083319720E32083B0
:101FA000319721E3208386970895109289008CE76A
:101FB000809388008BE080938100EFE6F0E08081E1
:101FC00082608083A091CE06B091CF06CD91CDBF27
:101FD000DD91DEBFFF91EF91DF91CF91BF91AF9186
:101FE0009F918F917F916F915F914F913F912F9131
:101FF0001F910F91FF90EF90DF90CF90BF90AF9027
:102000009F908F907F906F905F904F903F902F9018
:102010001F900F900FBE0F90089581E008950F92CA
:102020000FB6F8940F921F9211242F923F924F9265
:102030005F926F927F928F929F92AF92BF92CF9258
:10204000DF92EF92FF920F931F932F933F934F9343
:102050005F936F937F938F939F93AF93BF93CF9330
:10206000DF93EF93FF93A091CE06B091CF060DB60C
:102070000D920EB60D9267D3A091CE06B091CF0609
:10208000CD91CDBFDD91DEBFFF91EF91DF91CF917B
:10209000BF91AF919F918F917F916F915F914F9180
:1020A0003F912F911F910F91FF90EF90DF90CF9074
:1020B000BF90AF909F908F907F906F905F904F9068
:1020C0003F902F901F900F900FBE0F9008950F928A
:1020D0000FB6F8940F921F9211242F923F924F92B5
:1020E0005F926F927F928F929F92AF92BF92CF92A8
:1020F000DF92EF92FF920F931F932F933F934F9393
:102100005F936F937F938F939F93AF93BF93CF937F
:10211000DF93EF93FF93A091CE06B091CF060DB65B
:102120000D920EB60D92B4D181110DD3A091CE06B1
:10213000B091CF06CD91CDBFDD91DEBFFF91EF9184
:10214000DF91CF91BF91AF919F918F917F916F91CF
:102150005F914F913F912F911F910F91FF90EF90C1
:10216000DF90CF90BF90AF909F908F907F906F90B7
:102170005F904F903F902F901F900F900FBE0F9049
:102180000895A5DF18958091AA068230F0F347DF05
:10219000FACFE0919606F09197068081811103C0F5
:1021A0008FEF9FEF0CC0E0919606F09197060580A7
:1021B000F681E02D0680F781E02D82819381909356
:1021C00081068093800608950F931F93CF93DF932A
:1021D000EC0100918806109189068091CE069091BD
:1021E000CF0602965ED3C00FD11FE091CE06F091CC
:1021F000CF06D383C2836091CE067091CF06C017FD
:10220000D10758F480919406909195066E5F7F4FA8
:10221000DF91CF911F910F910CC380919606909101
:1022200097066E5F7F4F05D380918006909181065F
:10223000C817D90720F4D0938106C0938006DF9198
:10224000CF911F910F9108952F923F925F926F92BD
:102250007F928F929F92AF92BF92CF92DF92EF9236
:10226000FF920F931F93CF93DF934C01562E172F9E
:102270005A013901CA01F3DD1C01892B09F4BDC0E3
:1022800084E290E0ECDDEC01009781F0388E2F8A3B
:10229000650121E0C21AD108C20CD31CBC01675EE3
:1022A0007F4FE52DF12FCF01049606C0C10107DE57
:1022B000A4C0E817F90749F09F014191DB014D9354
:1022C000BD01D9012C912111F4CF1C8E043008F0EE
:1022D00003E00E8B0D8F1E8E5E01B2E0AB0EB11CC3
:1022E000C50182D2CE010C967FD2D987C88784E0FF
:1022F00090E0801B91099D878C87DB8BCA8B1F8E9A
:1023000018A219A21AA21BA2A301B401C601E1DD01
:1023100099838883E114F10419F0F701D183C08314
:102320000FB6F8940F9280918A068F5F80938A0689
:102330008091CE069091CF06892B51F5D093CF0690
:10234000C093CE0680918A06813091F58AEA96E0A4
:102350003DD283EB96E03AD28CEB96E037D285EC17
:1023600096E034D281EA96E031D288E996E02ED226
:102370008BE896E02BD281EA96E0909397068093C3
:10238000960688E996E0909395068093940610C08F
:102390008091860681110CC0E091CE06F091CF06A7
:1023A00096898E89891720F0D093CF06C093CE06E8
:1023B000809182068F5F809382068E899091870636
:1023C000981710F480938706F9E08F9FC0011124BD
:1023D000B5018655994F0CD20F900FBE809186069D
:1023E000882349F0E091CE06F091CF0696898E8938
:1023F000981708F414DE81E001C08FEFDF91CF91D0
:102400001F910F91FF90EF90DF90CF90BF90AF9012
:102410009F908F907F906F905F903F902F90089546
:10242000EF92FF920F938EE7E82E86E0F82E00E001
:1024300020E030E045E550E06AE271E083EC90E1B5
:1024400003DF813089F4F8942FEF3FEF309381065A
:102450002093800680938606109289061092880643
:102460000F91FF90EF90A1CD0F91FF90EF90089505
:1024700080917D068F5F80937D0608950FB6F89456
:102480000F9280918806909189060F900FBE089553
:10249000CF92DF92EF92FF920F931F93CF93DF9330
:1024A00080917D06811188C000918806109189066F
:1024B0000F5F1F4F109389060093880601151105C1
:1024C000B1F48091960690919706209194063091F0
:1024D00095063093970620939606909395068093E1
:1024E0009406809183068F5F8093830652DE8091ED
:1024F000800690918106C0E00817190708F44CC0C7
:10250000D9E0E0919606F09197068081811103C091
:102510008FEF9FEF11C0E0919606F091970605802E
:10252000F681E02DE680F780D70112968D919C917F
:1025300013970817190728F4909381068093800653
:102540002BC06701B2E0CB0ED11CC601AAD1F701A6
:1025500084899589892B19F0C7010C96A2D1D701DE
:1025600056969C9180918706891710F49093870660
:10257000D99FC0011124B6018655994F39D1E091F8
:10258000CE06F091CF06D70156969C918689981772
:1025900008F4B7CFC1E0B5CFE091CE06F091CF06F9
:1025A000E689B9E0EB9FF0011124E655F94F8081EF
:1025B000823040F0C1E006C0809185068F5F809335
:1025C0008506C0E0809184068111C1E08C2FDF91E7
:1025D000CF911F910F91FF90EF90DF90CF900895D2
:1025E000EF92FF920F931F93CF93DF930FB6F89460
:1025F0000F9280917D06815080937D0680917D06AB
:10260000882311F080E04CC080918A068823D1F3A2
:10261000C0E0D0E089E0F82EEE24E39480918B06B0
:10262000882339F1E0919006F0919106C681D78117
:10263000CE010C9636D18E010E5F1F4FC80131D1ED
:102640009E8980918706891710F490938706F99EDA
:10265000C0011124B8018655994FCAD0E091CE0629
:10266000F091CF069E8986899817C0F2E092840681
:10267000D5CFCD2B09F08DDDC0918506CC2349F057
:10268000D1E006DF8111D0938406C150D1F71092BA
:10269000850680918406882309F4B4CFC0DC81E0EC
:1026A0000F900FBEDF91CF911F910F91FF90EF9090
:1026B00008950F931F93CF93DF938C01EB01D8DE26
:1026C0002091880630918906F80140815181BA0134
:1026D0006C0F7D1F2417350728F46417750748F41D
:1026E00091E004C091E06417750720F026173707C2
:1026F00008F090E0F80171836083992321F0CB0109
:10270000821B930B61DD6CDF811101C088DCDF91DE
:10271000CF911F910F910895CF93DF9300D0CDB744
:10272000DEB7009711F47BDC09C089839A83A0DEB1
:1027300089819A8149DD54DF8823A9F30F900F9096
:10274000DF91CF91089580917D06882321F081E06B
:10275000809384060895109284068091870669E02C
:10276000482F50E0649F9001659F300D1124F901BE
:10277000E655F94F9081911102C08150F1CFA181AE
:10278000B28112960D90BC91A02DB283A1832355E6
:10279000394FA217B30731F412962D913C9113973C
:1027A0003283218399E0949FF001959FF00D1124CD
:1027B000E655F94F0180F281E02D26813781309373
:1027C000CF062093CE06809387060895FC010396DA
:1027D000928381832FEF3FEF348323839683858316
:1027E0009087878310820895FC01118610860895D2
:1027F000CF93DF939C01FB01DC011196CD91DC911D
:102800001297D383C2838C819D81958384838C812D
:102810009D81DC0113967C936E9312977D836C836C
:1028200031872087F90180818F5F8083DF91CF918D
:1028300008950F931F93CF93DF938C01FB01808149
:1028400091818F3F2FEF920721F4E801AF81B88586
:102850000EC0D801139612962D913C911397E90161
:10286000488159818417950710F0D901F4CF129649
:102870008D919C91139793838283EC01FD83EC836C
:10288000B583A4831396FC93EE9312971187008768
:10289000F80180818F5F8083DF91CF911F910F912D
:1028A0000895CF93DF93FC01A085B1858281938148
:1028B00024813581EC013D832C83C481D5819B83A8
:1028C0008A8311968D919C9112978E179F0721F400
:1028D0001296DC93CE931197118610868C918150BD
:1028E0008C93DF91CF910895AA1BBB1B51E107C0C8
:1028F000AA1FBB1FA617B70710F0A61BB70B881F90
:10290000991F5A95A9F780959095BC01CD0108951E
:10291000A1E21A2EAA1BBB1BFD010DC0AA1FBB1FE3
:10292000EE1FFF1FA217B307E407F50720F0A21B55
:10293000B30BE40BF50B661F771F881F991F1A94C2
:1029400069F760957095809590959B01AC01BD01EC
:10295000CF01089509D0A59F900DB49F900DA49F1D
:10296000800D911D11240895A29FB001B39FC00155
:10297000A39F700D811D1124911DB29F700D811DAB
:102980001124911D0895FC0105900020E9F7809520
:1029900090958E0F9F1F0895AEE0B0E0E1EDF4E159
:1029A000A1C28C01CA014EE04C831A83098377FFD0
:1029B00002C060E070E8FB013197FE83ED83A9015E
:1029C000BC01CE01019611D04D815E8157FD0AC038
:1029D0002F813885421753070CF49A01F801E20F52
:1029E000F31F10822E96E4E099C2ACE0B0E0EAEF6B
:1029F000F4E16AC27C016B018A01FC011782168234
:102A0000838181FFB0C1CE0101964C01F701938112
:102A1000F60193FD859193FF81916F01882309F45D
:102A20009EC1853239F493FD859193FF81916F01A9
:102A3000853221F4B70190E0B1D1E8CF512C312C8F
:102A400020E02032A0F48B3269F030F4803259F06B
:102A5000833269F420612CC08D3239F0803339F42F
:102A6000216026C02260246023C0286021C027FD89
:102A700027C030ED380F3A3078F426FF06C0FAE070
:102A80005F9E300D1124532E13C08AE0389E300D06
:102A90001124332E20620CC08E3221F426FD5FC13A
:102AA000206406C08C3611F4206802C0883641F4D8
:102AB000F60193FD859193FF81916F018111C1CF43
:102AC000982F9F7D9554933028F40C5F1F4FFFE3A0
:102AD000F9830DC0833631F0833771F0833509F007
:102AE00057C021C0F801808189830E5F1F4F4424A5
:102AF0004394512C540114C03801F2E06F0E711C44
:102B0000F801A080B18026FF03C0652D70E002C0EF
:102B10006FEF7FEFC5012C8736D12C0183012C8507
:102B20002F77222E16C03801F2E06F0E711CF801CB
:102B3000A080B18026FF03C0652D70E002C06FEF5A
:102B40007FEFC5012C8714D12C012C852068222E03
:102B5000830123FC19C0832D90E048165906A0F488
:102B6000B70180E290E01AD13A94F5CFF50127FC45
:102B7000859127FE81915F01B70190E00FD131105F
:102B80003A94F1E04F1A51084114510479F7DEC02C
:102B9000843611F0893631F5F80127FF07C06081CE
:102BA0007181828193810C5F1F4F08C060817181A8
:102BB000072E000C880B990B0E5F1F4F2F76722E7D
:102BC00097FF09C090958095709561957F4F8F4FC5
:102BD0009F4F2068722E2AE030E0A40117D1A82E62
:102BE000A81843C0853729F42F7EB22E2AE030E0A2
:102BF00025C0F22FF97FBF2E8F36C1F018F488352B
:102C000079F0ADC0803719F0883721F0A8C02F2F98
:102C10002061B22EB4FE0DC08B2D8460B82E09C089
:102C200024FF0AC09F2F9660B92E06C028E030E02E
:102C300005C020E130E002C020E132E0F801B7FE3B
:102C400007C060817181828193810C5F1F4F06C034
:102C50006081718180E090E00E5F1F4FA401D6D0AB
:102C6000A82EA818FB2DFF777F2E76FE0BC0372DE0
:102C70003E7FA51450F474FE0AC072FC08C0372DC4
:102C80003E7E05C0BA2C372D03C0BA2C01C0B52C2E
:102C900034FF0DC0FE01EA0DF11D8081803311F477
:102CA000397E09C032FF06C0B394B39404C0832FA9
:102CB000867809F0B39433FD12C030FF06C05A2C59
:102CC000B31418F4530C5B18B32CB31460F4B701AD
:102CD00080E290E03C8762D0B3943C85F6CFB31499
:102CE00010F43B1801C0312C34FF11C0B70180E350
:102CF00090E03C8753D03C8532FF16C031FD03C0C5
:102D000088E790E002C088E590E0B7010CC0832F0F
:102D1000867851F031FF02C08BE201C080E237FDBE
:102D20008DE2B70190E03AD0A51430F4B70180E30A
:102D300090E034D05A94F8CFAA94F401EA0DF11D32
:102D40008081B70190E02AD0A110F6CF332009F49A
:102D50005DCEB70180E290E021D03A94F7CFF70141
:102D60008681978102C08FEF9FEF2C96E2E1C8C069
:102D7000FC010590615070400110D8F78095909546
:102D80008E0F9F1F0895FC0161507040019001104B
:102D9000D8F7809590958E0F9F1F08950F931F93DE
:102DA000CF93DF93FB01238121FD03C08FEF9FEFC2
:102DB00028C022FF16C046815781248135814217E1
:102DC000530744F4A081B1819D012F5F3F4F3183B0
:102DD00020838C93268137812F5F3F4F3783268353
:102DE00010C0EB01092F182F0084F185E02D099503
:102DF000892BE1F68E819F8101969F838E83812F9F
:102E0000902FDF91CF911F910F910895FA01AA277A
:102E1000283051F1203181F1E8946F936E7F6E5F1D
:102E20007F4F8F4F9F4FAF4FB1E03ED0B4E03CD0CB
:102E3000670F781F891F9A1FA11D680F791F8A1FAE
:102E4000911DA11D6A0F711D811D911DA11D20D015
:102E500009F468943F912AE0269F11243019305DCF
:102E60003193DEF6CF010895462F4770405D4193C0
:102E7000B3E00FD0C9F7F6CF462F4F70405D4A330D
:102E800018F0495D31FD4052419302D0A9F7EACFD5
:102E9000B4E0A6959795879577956795BA95C9F704
:102EA00000976105710508959B01AC010A2E0694F7
:102EB0005795479537952795BA95C9F7620F731FB0
:102EC000841F951FA01D08952F923F924F925F92ED
:102ED0006F927F928F929F92AF92BF92CF92DF922A
:102EE000EF92FF920F931F93CF93DF93CDB7DEB78F
:102EF000CA1BDB0B0FB6F894DEBF0FBECDBF099423
:102F00002A88398848885F846E847D848C849B8479
:102F1000AA84B984C884DF80EE80FD800C811B8187
:102F2000AA81B981CE0FD11D0FB6F894DEBF0FBEB6
:0A2F3000CDBFED010895F894FFCF26
:102F3A000000F606800001756E6B6E6F776E206377
:102F4A006F6D6D616E640D0A00477265656E4C4562
:102F5A004400436F6D6D616E640049444C45000046
:00000001FF
