:10000000C9C200000C94C925EDC20000EBC200007B
:10001000E9C20000E7C20000E5C20000E3C2000040
:10002000E1C20000DFC20000DDC200000C94092B19
:10003000D9C20000D7C20000D5C20000D3C2000060
:10004000D1C20000CFC200000C94C7280C94322902
:10005000C9C20000C7C20000C5C20000C3C2000080
:10006000C1C20000BFC20000FA2407250725602294
:100070000725712207250725B224DF2307255822EB
:10008000AB24072507254522772244236E616E00A5
:10009000696E66006D6D635F706F7765725F6F6626
:1000A000660D0A006D6D635F706F7765725F6F6ECE
:1000B0000D0A006D6D635F696E69740D0A007263ED
:1000C0003D25640D0A000D0A002025303258002518
:1000D00030386C583A000D0A0063616E20736C650D
:1000E0006570204F53205469636B732025750D0A8A
:1000F0000020253032643A253032643A25303264AB
:10010000204D534B203078253032780D0A00414C79
:100110004D3A20253032642D253032642D25303281
:1001200064004F53205469636B732025750D0A00DA
:100130004461746120737461727420286C62612957
:10014000203D20256C750D0A0044495220737461CE
:10015000727420286C62612C636C7573746F7229E1
:10016000203D20256C750D0A0046415420737461B2
:10017000727420286C626129203D20256C750D0A5F
:10018000004E756D626572206F6620636C757374C6
:10019000657273203D20256C750D0A0053656374EC
:1001A0006F72732F464154203D20256C750D0A0057
:1001B000526F6F742044495220656E747269657382
:1001C000203D2025750D0A004E756D626572206F09
:1001D000662046415473203D2025750D0A00427962
:1001E0007465732F436C7573746572203D20256CA4
:1001F000750D0A004641542074797065203D202514
:10020000750D0A0020253032643A253032643A25D3
:100210003032640D0A00253032642D253032642DD1
:10022000253032640020253032643A253032643A79
:10023000253032640D0A0073657420253032642D38
:10024000253032642D2530326400532F4E3A20255C
:10025000730D0A004D6F64656C3A2025730D0A001A
:100260005344205374617475733A0D0A004F43521E
:100270003A0D0A004349443A0D0A004353443A0DEB
:100280000A004361726420747970653A2025750D07
:100290000A00457261736520626C6F636B3A2025BA
:1002A0006C7520736563746F72730D0A0044726914
:1002B00076652073697A653A20256C7520736563CD
:1002C000746F72730D0A004672656520486561702F
:1002D0002053697A653A2025750D0A006D6F756E99
:1002E000742072633D25640D0A006469736B206994
:1002F0002072633D25640D0A0072656164203A2016
:1003000025352E326620430D0A00436F6D6D616EF8
:1003100064207461736B0D0A0074696D656F757488
:100320000D0A0066696C652073796E632072633D07
:1003300025640D0A00485452204175746F204E65A3
:1003400078740D0A00253032642D253032642D2555
:1003500030326420253032643A253032643A253018
:1003600032642025326420256420207468203A20DD
:1003700025352E326620432025352E326620252550
:100380000D0A00207468203A2025352E326620435D
:100390002025352E32662025250D0A0020253264C1
:1003A000202564200020253032643A253032643A1A
:1003B0002530326400253032642D253032642D25FD
:1003C00030326400485452204F66660D0A0048548B
:1003D00052204F6E0D0A0066696C65206F70656E65
:1003E0002072633D25640D0A00436F756C64206EB6
:1003F0006F7420616C6C6F636174652046494C209A
:1004000025640D0A006D6F756E742072633D25645E
:100410000D0A00436F756C64206E6F7420616C6C04
:100420006F636174652046415446530D0A0052655E
:100430006164534854207461736B0D0A000D0A46C1
:1004400072656520486561702053697A653A202598
:10045000750D0A005374617274696E672073636866
:100460006564756C65720D0A004672656552544F7D
:10047000532053442053485431782044533332336B
:10048000342031393A35323A34320D0A007370690A
:100490005F696E69740D0A0000407A10F35A00A07B
:1004A000724E18090010A5D4E80000E8764817003D
:1004B00000E40B54020000CA9A3B000000E1F5057D
:1004C000000080969800000040420F000000A086C7
:1004D00001000000102700000000E80300000000F9
:1004E0006400000000000A0000000000010000009D
:1004F00000002C76D888DC674F0823DFC1DFAE59B7
:10050000E1B1B796E5E3E453C63AE651997696E849
:10051000E6C28426EB898C9B62ED407C6FFCEFBCCD
:100520009C9F40F2BAA56FA5F490055A2AF75C93F8
:100530006B6CF9676DC11BFCE0E40D47FEF520E62E
:10054000B500D0ED902E0300943577050080841E11
:10055000080000204E0A000000C80C333333330F6C
:10056000986E12831141EF8D2114893BE65516CF09
:10057000FEE6DB18D1844B381BF77C1D901DA4BB15
:10058000E424203284725E228100C9F124ECA1E5CA
:100590003D27122611241FBECFEFD8E0DEBFCDBF0E
:1005A00011E0A0E0B1E0EAE2F7E602C005900D92AA
:1005B000AC34B107D9F728E0ACE4B1E001C01D923A
:1005C000AB38B207E1F712E0CAECD2E004C02197E1
:1005D000FE010E94D12FC93CD107C9F70E940B250B
:1005E0000C9493330DCD0B01DC01ED91FD9122278D
:1005F000332744275527E8949AE001C0319660815B
:100600006032E1F3A8F16D3211F46894F7CF6A33E8
:1006100078F5603368F171F498E031966081613269
:1006200048F1623611F492E003C0683719F490E1A2
:10063000319660816132F0F0613608F060526053AB
:10064000B8F06A3018F067506A3090F0691780F49B
:1006500081E2771B08F4790F769557954795379582
:1006600027958A95B9F7260F381F481F581FE0CFE6
:1006700080E001C081E04EF46627209530954095DA
:100680005095261F361F461F561FFE93EE93D0012E
:100690002D933D934D935D9311240895A3E1B0E014
:1006A000E4E5F3E00C94E12F6C014B012A01FC011D
:1006B00017821682838181FF43C3AE014F5F5F4F74
:1006C0003A01F6019381F40193FD859193FF8191A5
:1006D0004F01882309F430C3853239F493FD8591A5
:1006E00093FF81914F01853239F4B60190E00E9469
:1006F000A53252012501E5CF10E0F12C20E0203297
:10070000A0F48B3269F030F4803259F0833269F40E
:1007100020612CC08D3239F0803339F4216026C03D
:100720002260246023C0286021C027FD27C030ED4F
:10073000380F3A3078F426FF06C0FAE01F9F300DDC
:100740001124132F13C04AE0F49E300D1124F32E10
:1007500020620CC08E3221F426FDEEC2206406C059
:100760008C3611F4206802C0883641F4F40193FD00
:10077000859193FF81914F018111C1CF9BEB980F20
:10078000933018F42061805E06C09BE9980F933087
:1007900008F071C12F7E26FF16E02F73322E8536AA
:1007A00019F42064322E08C0863621F4F22FF06846
:1007B0003F2E02C01111115037FE07C01C3350F4F8
:1007C000EE24E394E10E27E00BC0183038F027E068
:1007D00017E005C027E04CE3E42E02C0212FE12CF6
:1007E000520144E0A40EB11CF2016081718182814A
:1007F00093810E2DA3010E94AE312C01098100FFCF
:1008000002C003FF07C031FC08C032FE09C030E25D
:10081000232E07C02DE2222E04C09BE2292E01C008
:10082000212C802F8C7019F0211068C2A8C237FECD
:100830000FC0E40C04FF04C08A81813309F4EA94F8
:100840001E1474F5F8E0FE1578F588E0E82E2CC04B
:1008500036FC2AC0812F90E0841595059CF02CEF82
:1008600042162FEF520674F0432D4068342E0AC012
:10087000E2E0F0E0EC0FFD1FE10FF11D808180331D
:1008800019F411501111F4CF37FE0EC0EE24E39489
:10089000E10E812F90E0481659062CF4141904C07B
:1008A000EE24E39401C010E037FE06C014141504D2
:1008B00034F4C201019605C085E090E002C081E0F9
:1008C00090E021100196112331F0212F30E02F5FAD
:1008D0003F4F820F931F2F2D30E08217930714F4A0
:1008E000F81A01C0F12C832D897049F4FF2039F0EA
:1008F000B60180E290E00E94A532FA94F7CF222060
:1009000029F0B601822D90E00E94A53233FC09C087
:10091000FF2039F0B60180E390E00E94A532FA94FE
:10092000F7CF37FE5AC0942D852D57FE02C090E0B8
:1009300080E0292E382E20E030E0A2014E19510926
:100940005D874C87A201421953095F874E87612F4B
:1009500070E044275527461B570B598B488B5FEF98
:100960002516350649F4B6018EE290E02A8B3B8BC2
:100970000E94A5323B892A89421453046CF04C85AD
:100980005D854215530544F4EE85FF85E20FF31FA4
:10099000E60DF71D818101C080E351E0251A310881
:1009A0002F5F3F4F48895989241635064CF0B60110
:1009B00090E02A8B3B8B0E94A5322A893B89CFCFBE
:1009C0002414350439F49A81963318F4953311F4CC
:1009D00004FF81E3B60190E04BC08A81813309F0C6
:1009E0000F7EB60190E00E94A532111105C034FCC3
:1009F00018C085E690E017C0B6018EE290E00E9434
:100A0000A53282E0EE24E394E80EF301E80FF11D35
:100A10008081B60190E00E94A53211508E2D91F791
:100A2000E6CF85E490E0B6010E94A53257FC05C0F0
:100A30004114510439F404FF05C051944194510804
:100A40008DE201C08BE2B60190E00E94A53280E306
:100A50009AE0491651042CF08F5F5AE0451A51086C
:100A6000F7CFB60190E00E94A532B601C201C09650
:100A70000E94A53257C1833631F0833779F0833530
:100A800009F058C021C05201E2E0AE0EB11CF201E3
:100A90008081898301E010E0230114C05201F2E05B
:100AA000AF0EB11CF2014080518026FF03C0612FC0
:100AB00070E002C06FEF7FEFC2012A8B0E949A3272
:100AC0008C012A892F7715C05201F2E0AF0EB11CBC
:100AD000F2014080518026FF03C0612F70E002C008
:100AE0006FEF7FEFC2012A8B0E948F328C012A891F
:100AF0002068322E23FD1AC08F2D90E008171907A9
:100B0000A8F4B60180E290E00E94A532FA94F4CFF6
:100B1000F20137FC859137FE81912F01B60190E0FB
:100B20000E94A532F110FA94015011090115110526
:100B300079F7F8C0843611F0893659F5520127FF4C
:100B400009C0F4E0AF0EB11CF201608171818281B5
:100B500093810AC0F2E0AF0EB11CF2016081718195
:100B6000072E000C880B990B2F76322E97FF09C0A9
:100B700090958095709561957F4F8F4F9F4F20681E
:100B8000322E2AE030E0A3010E943533E82EE61829
:100B90003FC0022F853721F40F7E2AE030E01DC0D0
:100BA000097F8F3691F018F4883559F0C5C0803729
:100BB00019F0883711F0C0C0006104FF09C004605B
:100BC00007C024FF08C0066006C028E030E005C06A
:100BD00020E130E002C020E132E0520107FF09C00D
:100BE000F4E0AF0EB11CF2016081718182819381CA
:100BF00008C0F2E0AF0EB11CF2016081718180E0AB
:100C000090E0A3010E943533E82EE6180F77302ECE
:100C100036FE0BC0332D3E7FE11650F434FE0AC081
:100C200032FC08C0332D3E7E05C00E2D332D03C08F
:100C30000E2D01C0012F34FF0CC0FE01EE0DF11D81
:100C40008081803311F4397E08C032FF05C00E5F09
:100C500004C0832F867809F00F5F33FD13C030FF87
:100C600006C01E2D0F1518F41F0D101B0F2D0F158C
:100C700068F4B60180E290E03B8B0E94A5320F5FE2
:100C80003B89F5CF0F1510F4F01A01C0F12C34FF99
:100C900012C0B60180E390E03B8B0E94A5323B89F5
:100CA00032FF17C031FD03C088E790E002C088E53D
:100CB00090E0B6010CC0832F867859F031FF02C056
:100CC0008BE201C080E237FD8DE2B60190E00E9428
:100CD000A532E11638F4B60180E390E00E94A53217
:100CE0001150F7CFEA94F301EE0DF11D8081B601AA
:100CF00090E00E94A532E110F5CF14C0F4E0FF159A
:100D000058F584E0F81A33FE1EC0211026C003FFF8
:100D10002AC00CE810E0F32DF0713F2EF801849109
:100D2000811124C0FF2009F4E5CCB60180E290E0F7
:100D30000E94A532FA94F6CFF6018681978126C0EB
:100D40008FEF9FEF23C0B60180E290E00E94A532B2
:100D5000FA94F110F8CFD9CFF12CB601822D90E0A2
:100D60000E94A532D4CF00E910E0D5CF31108052D7
:100D7000B60190E00E94A5320F5F1F4FCFCF23E056
:100D80002F1510F483E0BECFF12CC1CF6396E2E1C2
:100D90000C94FD2F811102C00C94D31881E00895AA
:100DA000811102C00C940B1881E008950F931F93DA
:100DB000FB01BA01A9019801811105C0CF011F9162
:100DC0000F910C94D61884E01F910F9108950F9302
:100DD0001F93FB01BA01A9019801811105C0CF0140
:100DE0001F910F910C94181984E01F910F91089591
:100DF000962F811104C0BA01892F0C947F1984E0C9
:100E000008950C94301BFC016381862F90E0A0E0D4
:100E1000B0E0BA2FA92F982F88272281822BBA2FD2
:100E2000A92F982F88272181822BBA2FA92F982F9D
:100E300088272081BC01CD01622B0895FC014083ED
:100E400051836283738308950F931F93FC019A016A
:100E5000AB01225031094109510983899489A5893F
:100E6000B6890297A109B109281739074A075B0714
:100E700068F4A185B2850E94D72F07A110A521A5EE
:100E800032A5600F711F821F931F03C060E070E0E6
:100E9000CB011F910F910895FC0120813181211513
:100EA0003105B1F0F901BF014191413270F04A338F
:100EB000D1F7F90141916E177F0751F4403341F4A6
:100EC0002E5F3F4FFC013183208380E090E0089546
:100ED0008FEF9FEF08950F931F93CF93DF93EC0154
:100EE0008B01892B29F4F8011182108289E018C046
:100EF000E881F9813097B9F380818823A1F32581B6
:100F000036818A819B812817390769F7818142DF01
:100F100080FDE9CF88819981F8019183808380E009
:100F2000DF91CF911F910F910895FB01480F591F39
:100F30002191DC012D93CD01A417B507C9F70895C0
:100F4000FB01438D50E0542F4427928D492B60E0E4
:100F500070E0833079F4858990E0982F8827248980
:100F6000822BA0E0B0E0DC0199278827482B592B81
:100F70006A2B7B2BCB01BA010895FB01228F338FA3
:100F8000DC018C91833029F4CA01AA27BB27848B0A
:100F9000958B08958F929F92AF92BF92CF92DF92DE
:100FA000EF92FF920F931F93CF93DF93EC018BA4EB
:100FB0009CA4ADA4BEA46C018FE2C80ED11C01E0BC
:100FC00010E0A5019401B601898101DF81112FC0D4
:100FD0001B828F8D98A1A9A1BAA1B501A401481BBC
:100FE000590B6A0B7B0B8F89988DA98DBA8D481789
:100FF00059076A077B0710F080E01AC0EA80F12CDD
:1010000082E0E816F104C0F38F89988DA98DBA8D1E
:10101000880E991EAA1EBB1E01E010E0A5019401D6
:10102000B6018981D4DE81E0E81AF108E9CF81E0D8
:10103000DF91CF911F910F91FF90EF90DF90CF90B4
:10104000BF90AF909F908F900895FC012381211154
:10105000A1CF80E008958F929F92AF92BF92FF92AE
:101060000F931F93CF93DF93EC014A015B018BA594
:101070009CA5ADA5BEA5481759076A077B07D9F0FF
:10108000CE01E3DFF82E811117C001E010E0A501C9
:101090009401BE01615D7F4F898188DE882331F034
:1010A000FF24F39488248A94982C54018BA69CA640
:1010B000ADA6BEA601C0F12C8F2DDF91CF911F915F
:1010C0000F91FF90BF90AF909F908F900895CF9316
:1010D000DF93EC011B828FEF9FEFDC018BA79CA7B6
:1010E000ADA7BEA7CE01B7DF81112BC0FE01E25D27
:1010F000FD4F808190E0982F882731972081822BA7
:1011000085359A4A01F58FA5893E29F08B3EF9F481
:1011100089A98039E1F4CE018B599F4F74DEDC013F
:10112000CB01BB2786349144A445B10571F0CE01B3
:101130008F579F4F68DE663471448445934339F47A
:1011400004C084E005C083E003C080E001C082E009
:10115000DF91CF9108952F923F924F925F926F92BD
:101160007F928F929F92AF92BF92CF92DF92EF9237
:10117000FF920F931F93CF93DF93CDB7DEB76E9798
:101180000FB6F894DEBF0FBECDBF7B01DB011D9211
:101190001C924E8F81DE6C014E8D97FD4BC2FC017F
:1011A000EE0FFF1FE25BFE4F00811181011511055B
:1011B00009F442C2F701118300834E7FF42ED80157
:1011C0008C91882361F011968C91E4DD80FD07C03D
:1011D000FF2009F433C282FF31C28AE037C2F8012E
:1011E0001082C1828C2DDCDD80FD2AC2FF2011F02F
:1011F00082FDF3CF40E050E0BA01C80168DF8230E1
:1012000009F041C09E012F5F3F4F690178013BE02B
:10121000E31A3EEFF30A48014BEC841A4DEF940AAF
:101220005601F70134978081882319F0C701EBDD5F
:1012300003C060E070E0CB01D5016D937D938D9389
:101240009D935D01B0E1EB0EF11CE814F90449F740
:101250007E01E1E1EE0EF11CD6014D905D906D90A6
:101260007D906D01411451046104710439F0B301A2
:10127000A201C8012CDF823010F40FC083E0CE142D
:10128000DF0451F7DFC1412C512C3201843009F4C5
:10129000DCC1823010F08DE0D9C1F80183AD90E05F
:1012A000982F882722AD822B81159240A1F7F80153
:1012B000EA5BFF4F8080912C982C882431978081A5
:1012C000882A8114910419F0A12CB12C06C0C80100
:1012D0008D5A9F4F98DD4B015C01D80157968D9236
:1012E0009D92AD92BC925A97DF964C91DF971296E1
:1012F0004C9312978FEF840F823068F6DC96BC9186
:10130000B98B8B2F90E0F80192878187009719F2B3
:101310009C012150310982239323892B09F0BBCFF3
:10132000EF5BFF4F808190E0982F882731972081D5
:101330001C01222AD80118963C922E921797C101BF
:101340008F709927892B09F0A6CF3396808190E082
:10135000982F882731972081822B6C01E12CF12C6A
:10136000892B41F4C801815B9F4F4E8F4CDD6B018F
:101370007C014E8DD801DE96EC91DE97F0E0FE2FD9
:10138000EE27DD968C91E82B309709F484CFA42FBB
:10139000B0E0A50194010E94D72F6E8B7F8B888FC0
:1013A000998F9F0140E050E02A8F3B8F4C8F5D8FDB
:1013B000C101B4E096958795BA95E1F7280F391FDA
:1013C000411D511DDA01C9012E893F89488D598D72
:1013D000280F391F4A1F5B1F2A8B3B8B4C8B5D8B61
:1013E000C216D306E406F50608F455CFC701B601C8
:1013F000621B730B840B950BA9892A2F30E040E008
:1014000050E00E94AF2F211531054105510509F427
:1014100042CF263FBFEF3B074105510548F4263F29
:10142000EFE03E074105510530F0F2E0F98B05C0D1
:1014300083E0898B02C091E0998B69017A01A2E077
:10144000CA0ED11CE11CF11CF801C38AD48AE58ABA
:10145000F68A438E548E658E768E8A8D9B8DAC8DEA
:10146000BD8D840D951DA61DB71D878F90A3A1A3CB
:10147000B2A34A895B896C897D89440D551D661D1F
:10148000771D47A350A761A772A7F989F33019F513
:10149000F801E65AFF4F808190E0982F8827319716
:1014A0002081822B892B09F0F6CE232809F0F3CE78
:1014B000C801855A9F4FA7DCD80193966D937D9301
:1014C0008D939C93969772E0CC0CDD1CEE1CFF1C58
:1014D0007A95D1F72DC0232809F4DDCE2E893F89D6
:1014E000488D598D820F931FA41FB51FF80183A348
:1014F00094A3A5A3B6A3F989F23029F4CC0CDD1C82
:10150000EE1CFF1C15C0A3E0B0E0A70196010E94ED
:10151000D72FDC01CB01B695A7959795879521E04C
:10152000C222DD24EE24FF24C80ED91EEA1EFB1EB3
:101530003FEFC30E31E0D31EE11CF11C49E0F694ED
:10154000E794D794C7944A95D1F78C149D04AE04C0
:10155000BF0408F4A0CE8FEF9FEFDC01F80187876E
:10156000908BA18BB28B83879487A587B68780E801
:101570008483F989F33009F04CC0F801E05AFF4F39
:10158000808190E0982F882731972081822B0197C6
:1015900009F03FC0B301A2014F5F5F4F6F4F7F4F14
:1015A000C80159DD811135C0D80114961C92F8018B
:1015B000E25DFD4F808190E0982F88273197208150
:1015C000822B85359A4A29F5C8018F961CDC623535
:1015D000724581469144E9F4C8018D5E9D4F13DC4C
:1015E0006237724781449146A1F4C801895E9D4FDC
:1015F0000ADCD8011F966D937D938D939C9352972F
:10160000C801855E9D4FFFDBF8016387748785877E
:101610009687E989D801EC9380914C0190914D0116
:10162000019690934D0180934C0116969C938E9356
:10163000159704C08BE00AC08CE008C080E006C0AB
:1016400083E004C0843009F026CE81E06E960FB6A8
:10165000F894DEBF0FBECDBFDF91CF911F910F91E8
:10166000FF90EF90DF90CF90BF90AF909F908F90C2
:101670007F906F905F904F903F902F9008952F92A2
:101680003F924F925F926F927F928F929F92AF9212
:10169000BF92CF92DF92EF92FF920F931F93CF935F
:1016A000DF9300D000D0CDB7DEB71C016A017B010B
:1016B00028013901423051056105710508F4DAC08D
:1016C000FC0183899489A589B689481759076A0757
:1016D0007B0708F0CFC08081823009F473C083306B
:1016E00009F491C0813009F0C5C05A01B694A7949D
:1016F000A40EB51EC501892F99278695478D50A147
:1017000061A172A1480F591F611D711DC101A3DCA8
:10171000182F8111B0C04501FFEF8F1A9F0A31E0E9
:10172000B322A20CB31CD701C60181709927AA2746
:10173000BB2789839A83AB83BC83C0FE0BC0D501D2
:101740009F968C91282F2F70B0E14B9EC0011124E1
:10175000822B01C0842DF50187A781E0D10113966A
:101760008C9313975F964D915D916D917C919297BB
:10177000C401892F99278695480F591F611D711D36
:10178000C10169DC182F811176C0B1E09B22F10103
:10179000E80DF91D89819A81AB81BC81892B8A2B47
:1017A0008B2B41F054E076946794579447945A9564
:1017B000D1F706C047A5407F852D8F70442E482A5B
:1017C00047A653C077276F2D5E2D4D2DF101878DD4
:1017D00090A1A1A1B2A1480F591F6A1F7B1FC1018F
:1017E0003ADC182F811147C0CC0CDD1CE894C0F8FE
:1017F000F1E0DF22F101EC0DFD1D47A6F101EC0D3A
:10180000FD1D50AA32C0F101878D90A1A1A1B2A106
:1018100027E076956795579547952A95D1F7480F14
:10182000591F6A1F7B1FC10116DC182F811123C0AD
:10183000CC0CDD1CCC0CDD1CFCEFCF22F1E0DF2258
:101840003FE2C30ED11CC20CD31CC601DCDAAB01D3
:10185000BC01442755276627707F8FE078224429F2
:10186000552966297729C601E9DA81E0D101139665
:101870008C9301C012E0812F0F900F900F900F906A
:10188000DF91CF911F910F91FF90EF90DF90CF905C
:10189000BF90AF909F908F907F906F905F904F9090
:1018A0003F902F900895AF92BF92CF92DF92EF9228
:1018B000FF920F931F93CF93DF938C016A017B01FB
:1018C000423051056105710508F4A3C0F801838910
:1018D0009489A589B689481759076A077B0708F0D4
:1018E00098C08081823009F44BC0833009F46EC007
:1018F000813009F08EC0EA01D695C795C40FD51F77
:10190000CE01892F99278695478D50A161A172A19B
:10191000480F591F611D711DC8019DDB882321F0EF
:101920006FEF7FEFCB0179C05E01FFEFAF1ABF0A07
:10193000D170C00FD11FCFA5C501892F99278695DA
:10194000F801478D50A161A172A1480F591F611D77
:10195000711DC80180DB8111E3CFF1E0BF22F801E6
:10196000EA0DFB1D87A56C2F70E0782BC0FE06C02A
:10197000E4E076956795EA95E1F725C07F7023C08E
:1019800077276F2D5E2D4D2DF801878D90A1A1A198
:10199000B2A1480F591F6A1F7B1FC8015CDB811170
:1019A000BFCFCC0CDD1CE894C0F8F1E0DF22F801D9
:1019B000EC0DFD1D60A970E0762F6627F801EC0D97
:1019C000FD1D87A5682B80E090E027C0F801878D7A
:1019D00090A1A1A1B2A127E076956795579547956B
:1019E0002A95D1F7480F591F6A1F7B1FC80133DBA7
:1019F000811196CFCC0CDD1CCC0CDD1CFCEFCF2272
:101A0000F1E0DF22C6018F96800F911FFCD99F70F5
:101A100004C061E070E080E090E0DF91CF911F9121
:101A20000F91FF90EF90DF90CF90BF90AF9008950F
:101A30004F925F926F927F928F929F92AF92BF92DE
:101A4000CF92DF92EF92FF920F931F93CF93DF938A
:101A50008C014A015B01FC01C081D1814115510516
:101A60006105710599F44B845C846D847E84411416
:101A700051046104710459F18B899C89AD89BE8937
:101A8000481659066A067B0630F121C0CE010BDFED
:101A90006B017C01623071058105910508F493C0EA
:101AA0006F3F7F4F8F4F9F4F29F44FEF3FEF2FEF47
:101AB0009FEF92C08B899C89AD89BE89C816D906D3
:101AC000EA06FB0608F484C02401350104C0412C59
:101AD000512C32014394730162018FEFC81AD80A66
:101AE000E80AF80A8B899C89AD89BE89C816D9068F
:101AF000EA06FB0668F0E2E04E1651046104710448
:101B000010F440E061C082E0C82ED12CE12CF12C11
:101B1000B701A601F80180819181C5DE61157105CB
:101B200081059105A9F0613071058105910531F0BC
:101B30006F3FFFEF7F078F079F0721F4462F372F57
:101B4000282F4AC0C414D504E604F70431F6D9CFCF
:101B50000FEF1FEF9801B701A601CE0190DD8111B3
:101B60002FC081149104A104B104E9F4CB86DC8672
:101B7000ED86FE868F859889A989BA894B895C890B
:101B80006D897E8942505109610971098417950751
:101B9000A607B70788F40197A109B1098F87988B29
:101BA000A98BBA8B09C097018601B501A401CE01AA
:101BB00066DD8823D9F204C08C8181608C8308C0E3
:101BC000813009F472CF41E030E020E090E004C0C1
:101BD0004C2D3D2D2E2D9F2D642F732F822FDF91A5
:101BE000CF911F910F91FF90EF90DF90CF90BF901A
:101BF000AF909F908F907F906F905F904F900895DF
:101C00004F925F926F927F928F929F92AF92BF920C
:101C1000EF92FF920F931F93CF93DF937C014A01C2
:101C20005B01B901A801FC01C081D181F2E08F16EE
:101C30009104A104B10410F482E05EC08B899C89F8
:101C4000AD89BE8988169906AA06BB06A8F7012B9E
:101C5000022B032B39F00FEF1FEF9801CE010FDDA0
:101C600081114AC0B501A401F701808191811BDE79
:101C70002B013C01611571058105910511F480E08E
:101C80003BC06130710581059105B1F26F3F7F4F17
:101C90008F4F9F4F81F100E010E09801B501A40142
:101CA000CE01EDDC811128C08F859889A989BA8978
:101CB0004B895C896D897E894A015B01E2E08E1A5D
:101CC0009108A108B10888159905AA05BB0550F42B
:101CD0000196A11DB11D8F87988BA98BBA8B8C8122
:101CE00081608C83530142014416550666067706CF
:101CF00008F4B8CFC4CF81E0DF91CF911F910F914D
:101D0000FF90EF90BF90AF909F908F907F906F90DB
:101D10005F904F900895CF92DF92EF92FF920F93D2
:101D20001F93CF93DF938C01FC01C081D181168674
:101D30001786108A118AC680D780E084F184C11486
:101D4000D104E104F104E9F48881833040F08BA1EF
:101D50009CA1ADA1BEA10097A105B10581F48F8121
:101D60009885892B11F482E04AC08BA19CA1ADA17A
:101D7000BEA1F801868B978BA08FB18F2CC06C0110
:101D80007D0189859A85892BE9F4B701A601F801BF
:101D90008081918188DD6B017C016F3F7F4F8F4F88
:101DA0009F4F61F182E0C816D104E104F104D8F23A
:101DB0008B899C89AD89BE89C816D906EA06FB06BF
:101DC00020F3D1CFB701A601CE013ED8F801668B32
:101DD000778B808F918FF801C28AD38AE48AF58A43
:101DE00086899789A08DB18D892B8A2B8B2B09F43D
:101DF000BACFAF96D38FC28F80E001C081E0DF9170
:101E0000CF911F910F91FF90EF90DF90CF900895A9
:101E10004F925F926F927F929F92AF92BF92CF92BA
:101E2000DF92EF92FF920F931F93CF93DF93FC010A
:101E30005B01C081D181C684D784E088F18846895E
:101E40005789608D718D411551056105710509F442
:101E5000F1C080E2C80ED11CE11CF11CC114D104F8
:101E600080E2E806F10408F0E5C08F01D701C60161
:101E70009170AA27BB27892B8A2B8B2B09F0C9C00D
:101E80004F5F5F4F6F4F7F4F468B578B608F718FC8
:101E90004289538964897589411551056105710528
:101EA000C9F48F819885A0E0B0E0B701A60135E0C4
:101EB00076956795579547953A95D1F748175907FD
:101EC0006A077B0708F4A5C0F801168A178A108EE6
:101ED000118EB0C089859A850197A0E0B0E02601F7
:101EE000370129E076946794579447942A95D1F75F
:101EF00084219521A621B721892B8A2B8B2B09F0D0
:101F000088C0CE01D0DC2B013C0162307105810517
:101F1000910510F482E091C08FEF481658066806CC
:101F2000780611F481E089C08B899C89AD89BE89CE
:101F3000481659066A067B0608F45CC0AB2821F2F5
:101F4000F8014289538964897589C80171DD2B01C3
:101F50003C01611571058105910509F46DC0613081
:101F6000710581059105B1F28FEF48165806680694
:101F70007806C1F2CE0169D88111D4CFFE01BF9697
:101F8000CE01815D9D4F1192E817F907E1F7B3018A
:101F9000A201CE010E9424076BA77CA78DA79EA754
:101FA000A12CB12C9924939489859A85A816B906F9
:101FB000A8F49B82CE010E94CA078111B3CFEFEF34
:101FC000AE1ABE0A8BA59CA5ADA5BEA50196A11D06
:101FD000B11D8BA79CA7ADA7BEA7E6CF8BA59CA5DF
:101FE000ADA5BEA58A199B09A109B1098BA79CA71C
:101FF000ADA7BEA7F801428A538A648A758AB301E5
:10200000A201CE010E942407F801668B778B808F96
:10201000918FF801C686D786E08AF18AF1E0DF2247
:102020008FE2C80ED11CCC0DDD1DF801D38FC28FFD
:1020300080E003C084E001C087E0DF91CF911F9171
:102040000F91FF90EF90DF90CF90BF90AF909F9057
:102050007F906F905F904F9008956F927F928F92D4
:102060009F92AF92BF92CF92DF92EF92FF920F9327
:102070001F93CF93DF93FC01C080D1809B01890126
:10208000F90140812F5F3F4F4F32C9F34C35B9F30F
:10209000FC011682178210861186F80120812032F9
:1020A00070F0EC017C01FCE1EF0EF11C5C0187E2B9
:1020B000A80EB11C80E2682E95E0792E51C020E870
:1020C000FC0127A3DF91CF911F910F91FF90EF901B
:1020D000DF90CF90BF90AF909F908F907F906F9048
:1020E0001ACE6192EA15FB05E1F780E090E060E02E
:1020F00070E048E050E09B012F5F3F4FF801E60F92
:10210000F71FB081B13270F5020F131F892B09F44C
:10211000B1C08C8D853E09F47C8EB13208F471C05B
:1021200080E08FA388809980CE01F5DD882309F4B3
:102130006AC09FA1811195C092FD98C08C8184FFD7
:1021400097C06E857F857170615D7F4F6C0D7D1DC1
:10215000F60180810E94A0076E837F83888799871C
:10216000F701BFCFBF3211F0BC3561F4F801E20FC7
:10217000F31F9F01201B310B41914F32D1F34C359E
:10218000C1F3C2CFBE3209F477C08417950708F0B7
:1021900071C0EFE7EB0FEF3120F0E0E2EB0FED3134
:1021A00018F56E5F7F4FF801E20FF31FA08120EC5E
:1021B0002A0F2F3328F020E82A0F2D3708F05AC0B5
:1021C0009A01215031098217930708F053C0F70193
:1021D000E80FF91FB083FC013196EE0DFF1D02964A
:1021E000A0839B01B90187CF8B2E912CE1E0F1E018
:1021F0006191662309F448C070E068157905C1F75C
:1022000039C084E08ECF4E895F89688D798DC40195
:102210000E942B0881118DCFEA8DFB8D8081882350
:10222000E1F083858F738C83838583FD11C09F01CB
:10223000255F3F4FD70181914D9190E0841B91091B
:10224000E217F30719F4892B19F409C0892B99F3C4
:1022500060E070E0CE01DCDD69CF84E06ACF80E031
:1022600068CF8430E1F492FF03C019C080E017C04A
:1022700085E015C086E013C04B305105D9F388E0E6
:1022800090E04BE050E0AECF6FE96B0F6A3108F49D
:10229000B052F701E80FF91FB0830196A3CFDF9189
:1022A000CF911F910F91FF90EF90DF90CF90BF9053
:1022B000AF909F908F907F906F900895EF92FF92D4
:1022C0000F931F93CF938C01DC01ED90FC9023DDE5
:1022D000C82F81111AC0F80146895789608D718D08
:1022E000C7010E942B08C82F81110FC0D8015A9630
:1022F000ED91FC915B978081853E59F0882349F0F0
:1023000061E070E0C80184DDE3CFC43031F5C7E09F
:1023100024C0F80146895789608D718DC7010E94DC
:102320002B08C82F811119C0D8015A96ED91FC9144
:102330005B97CF0180961192E817F907E1F7B80192
:10234000645E7F4F4BE050E0F801828D938D0E94D8
:10235000950781E0D70113968C938C2FCF911F9115
:102360000F91FF90EF900895EF92FF920F931F93BC
:10237000CF93DF93EC010E942508982F81115DC057
:102380008881833009F04FC08C81813009F04BC0C7
:102390007E018FE2E80EF11CF701CE01815D9D4FB9
:1023A0001192E817F907E1F785E5FE01E35DFD4FBE
:1023B00080838AEA3196808382E58FA788AB81E6A5
:1023C00089AB91E49AAB22E77B97208331962083F7
:1023D00031969083319680834F85588969897A89AF
:1023E000CE01895E9D4F0E941E074B855C856D85E1
:1023F0007E85CE01855E9D4F0E941E078B8D9C8D34
:10240000AD8DBE8D9C01AD012F5F3F4F4F4F5F4F94
:102410002BA73CA74DA75EA701E010E0B70189817B
:102420000E94E7061C8240E050E060E089810E9443
:10243000F80691E0811101C090E0892FDF91CF91E2
:102440001F910F91FF90EF900895CF93DF93CDB739
:10245000DEB727970FB6F894DEBF0FBECDBF9C83C3
:102460008B837E836D837A836983CE0101964F834C
:102470000E944C074F8197FD22C0880F991FFC01D5
:10248000E25BFE4F0190F081E02D309709F0108261
:10249000EB81FC81309709F01082DC01A25BBE4F1A
:1024A000ED93FC93EF2B69F0413059F440E0BE010D
:1024B0006D5F7F4FCE0105960E94AB0803C08BE095
:1024C00001C080E027960FB6F894DEBF0FBECDBFE7
:1024D000DF91CF9108954F925F926F927F928F928A
:1024E0009F92AF92BF92DF92EF92FF920F931F9352
:1024F000CF93DF93CDB7DEB7E0970FB6F894DEBF8A
:102500000FBECDBF7CA76BA7009709F45CC1142F49
:102510007C01242F2F73D22E422FBE01675D7F4F87
:10252000CE018B960E94AB08811158C189A59AA54E
:102530009A8389836BA57CA5CE0101968EDD8111DE
:1025400003C098A597FD86E0912F9C7109F46FC098
:10255000882359F0843019F4CE010196AFDE3D2D69
:102560003860D32E882339F039C18D81817109F00B
:1025700030C112FD2AC1D3FE63C00E946F254B01FA
:102580005C018B8D9C8DB501A4010E960E941E07E7
:102590008B8D9C8DB501A40146960E941E07EB8D84
:1025A000FC8D80E28387AB8CBC8C09A51AA5B50194
:1025B000D8018C910E94A0072B013C0120E030E063
:1025C000A901B501C8010E94BD07EB8DFC8D148ED9
:1025D000158E168E178EE9A5FAA581E08383411426
:1025E00051046104710461F183A494A4A5A4B6A468
:1025F00000E010E09801B301A201CE01019600DBDA
:102600008111ECC0B501A40189A59AA50E942B08EF
:10261000E9A5FAA5B301A201415051096109710967
:102620004387548765877687882351F0D7C0811107
:10263000D5C08D8184FDCBC011FF02C080FDC9C013
:10264000D3FE03C0BD2DB064DB2E09A51AA5F80189
:1026500083A594A5A5A5B6A5F701848F958FA68F10
:10266000B78FAB8CBC8CB1A2A0A2B501D8018C9164
:102670000E94A0072B013C01F701668377838087C6
:102680009187C5014C960E9403074B015C01D7015D
:102690001A966D937D938D939C931D9711961C9321
:1026A0000E93F8018581968113969C938E931297D1
:1026B0001E96DC921E971F961C921F9758961D928D
:1026C0001D921D921C925B97F701108A118A128A43
:1026D000138AD5FE80C081149104A104B10409F4C9
:1026E0007AC050968D929D92AD92BC925397F8010C
:1026F00081859285A0E0B0E09C01AD0169E0220FE8
:10270000331F441F551F6A95D1F72DA73EA74FA72A
:1027100058AB2DA53EA54FA558A9281539054A0542
:102720005B0510F5B301A201D7018D919C91BBD837
:102730002B013C01623071058105910538F06F3F36
:102740007F4F8F4F9F4F21F080E003C082E001C098
:1027500081E02DA53EA54FA558A9821A930AA40A87
:10276000B50A8823B1F201C080E0D70154964D929A
:102770005D926D927C925797811130C0D501C40152
:102780009170AA27BB27892B8A2B8B2B21F1B301B0
:10279000A20189A59AA50E942407611571058105EA
:1027A0009105D9F029E0B694A794979487942A9537
:1027B000D1F7860E971EA81EB91EF701808E918E46
:1027C000A28EB38E08C089E00CC088E007C084E008
:1027D00005C087E003C080E004C082E0D7011D92FD
:1027E0001C92E0960FB6F894DEBF0FBECDBFDF910E
:1027F000CF911F910F91FF90EF90DF90BF90AF901E
:102800009F908F907F906F905F904F9008952F9240
:102810003F924F925F926F927F928F929F92AF9270
:10282000BF92CF92DF92EF92FF920F931F93CF93BD
:10283000DF9300D000D0CDB7DEB77C014B015A0149
:102840003C832B83F90111821082BE016F5F7F4FA1
:102850000E946B0781116EC1F701878581116AC1E2
:10286000868581FF66C180899189A289B389AC017F
:10287000BD014A0D5B1D611D711D481759076A078F
:102880007B0708F0BBC05C01A094B094B7C0F7010F
:1028900080899189A289B389AC01BD0151706627F5
:1028A0007727452B462B472B09F019C1E981FA817F
:1028B0000185128501501109AC01BD01E9E0769551
:1028C000679557954795EA95D1F704231523011588
:1028D000110509F498C089819A81FC0143A454A48C
:1028E00065A476A4F701408D518D628D738D4416D9
:1028F00055066606770609F4CEC069807A80F7012E
:102900004489558966897789C3010E942407611526
:1029100071058105910509F49FC01B012C01200E52
:10292000311E411C511C6501CD2CDD24C694C114FF
:10293000D10409F4B6C0F301818592859601200F78
:10294000311F8217930718F46C01C01AD10A86014F
:10295000A2019101B401F30181810E94E706811176
:1029600083C089819A81FC0143A554A565A576A5FC
:102970004219530964097509860120E030E04017C7
:1029800051076207730770F4542F4427550FB401A1
:10299000640F751F40E052E08F960E949507E98111
:1029A000FA811382DC2CCC24DD0C8C0C9D1CF701ED
:1029B00080899189A289B3898C0D9D1DA11DB11DAE
:1029C000808B918BA28BB38B4285538564857585F3
:1029D00084179507A607B70710F4DB01CA01F701B2
:1029E00082879387A487B587EB81FC818081918161
:1029F0008C0D9D1D91838083AC18BD08A114B1047A
:102A000009F045CF1EC0F701892B8A2B8B2B69F467
:102A100066817781808591856115710581059105B4
:102A2000B1F440E050E0BA0104C044895589668998
:102A30007789C7010E94180D6115710581059105FF
:102A400031F4F70186858064868780E073C0613049
:102A500071058105910511F482E007C06F3FFFEF1A
:102A60007F078F079F0721F481E0F701878762C006
:102A7000F701648B758B868B978B468057806084BB
:102A8000718445284628472809F025CF6683778337
:102A90008087918720CF0E942508882309F42DCFB5
:102AA000E3CFF701408951896289738982859385D3
:102AB000A485B585481759076A077B0758F0C301F5
:102AC0000E9425088111D0CFE981FA8123A634A67E
:102AD00045A656A6F701208E318E428E538EF70101
:102AE00080899189917020E032E0281B390B6501C3
:102AF0002A153B0508F46901F701408D518D628D5F
:102B0000738D89819A810E942B088111ADCFF701C5
:102B10008089918991708F9629813A81A601B401AB
:102B2000820F931F0E949507E981FA8121E0238398
:102B30003CCF87E00F900F900F900F90DF91CF91D7
:102B40001F910F91FF90EF90DF90CF90BF90AF90CB
:102B50009F908F907F906F905F904F903F902F90BD
:102B600008958F929F92AF92BF92EF92FF920F9330
:102B70001F93CF93DF9300D0CDB7DEB78C01BE019A
:102B80006F5F7F4F0E946B07811140C0F8019685EF
:102B900096FF3CC00E946F254B015C01F801448DFB
:102BA000558D668D778D89819A810E942B088111C0
:102BB0002DC0F801E0A0F1A0F70183858062838732
:102BC000F8012681378140855185B7018081918147
:102BD0000E94BD07F8014285538564857585C7014C
:102BE0004C960E941E07B501A401C70146960E949B
:102BF0001E07F701128A138A89819A8121E0FC015C
:102C00002383B2DBF80196859F7B96870F900F9008
:102C1000DF91CF911F910F91FF90EF90BF90AF90F8
:102C20009F908F9008952F923F924F925F926F9254
:102C30007F928F929F92AF92BF92CF92DF92EF924C
:102C4000FF920F931F93CF93DF93CDB7DEB72997F2
:102C50000FB6F894DEBF0FBECDBF9C838B831B01E4
:102C60007A0140E0BE016F5F7F4FCE0103960E9464
:102C7000AB088D838111CFC009811A81F7011183BF
:102C80000083F80187859089A189B2894388548897
:102C900065887688B301A201425051096109710922
:102CA000481759076A077B0730F0F1018083918349
:102CB000A283B383B0C0F80180818130A1F5E2E046
:102CC0004E2E512C612C712CC12CD12C7601B301CC
:102CD000A201C8010E94530C6F3FFFEF7F078F07CF
:102CE0009F0709F484C0613071058105910509F4DD
:102CF00080C0672B682B692B29F42FEFC21AD20AE8
:102D0000E20AF20A8FEF481A580A680A780AE9813B
:102D1000FA8183899489A589B689481659066A0675
:102D20007B06A8F26AC0F801278D30A141A152A10B
:102D300000E010E0A12CB12CC12CD12C7601A11403
:102D4000B104C1F449015A01FFEF8F1A9F0AAF0A7B
:102D5000BF0ABA01A90189819A810E942B088111B9
:102D60004BC009811A81015D1F4FA5019401A12C5F
:102D700072E0B72EE981FA8180818230A1F4F801F6
:102D8000818190E0982F88276081862B892B29F4F8
:102D9000FFEFCF1ADF0AEF0AFF0A0E5F1F4F82E034
:102DA000A81AB1081CC0C8012E833F8348875987E1
:102DB0000E940307DC01CB01BF702E813F81488553
:102DC0005985892B8A2B8B2B29F4EFEFCE1ADE0A3B
:102DD000EE0AFE0A0C5F1F4FF4E0AF1AB10881E063
:102DE000481A51086108710809F0A9CF06C021E00E
:102DF00001C022E02D8301C08D83F101C082D18208
:102E0000E282F382E981FA81C786D08AE18AF28A76
:102E10008481816084838D8129960FB6F894DEBF0A
:102E20000FBECDBFDF91CF911F910F91FF90EF901B
:102E3000DF90CF90BF90AF909F908F907F906F90DA
:102E40005F904F903F902F9008958EBD0DB407FE78
:102E5000FDCF8EB508956AE070E00E949B2F6093CD
:102E600051018FEFF2DF282F8F3F21F08091510128
:102E70008111F7CF81E090E02F3F11F080E090E0EA
:102E80000895299A8FEFE1CFCF93DF9300D0CDB78C
:102E9000DEB729988FEFD9DF84EF91E0DCDF009770
:102EA00031F489839A83EDDF89819A8102C081E0C0
:102EB00090E00F900F90DF91CF910895FF920F93C4
:102EC0001F93CF93DF93C82FD42F152F062FF72EE4
:102ED00087FF08C040E050E0BA0187E3EFDF8230AF
:102EE00050F5CF77CC3071F48C2F8064AEDF8F2D0E
:102EF000ACDF802FAADF812FA8DF8D2FA6DFCC23A8
:102F000059F006C0BEDFC0DF892B71F78FEF13C009
:102F1000C83021F081E003C085E901C087E895DF72
:102F2000CC3011F48FEF91DFCAE08FEF8EDF87FF97
:102F300002C0C150D1F7DF91CF911F910F91FF9047
:102F400008950F931F93CF93DF93EC018B0184E1DE
:102F5000809352018FEF79DF8F3F29F480915201E6
:102F60008111F8CF1CC08E3FD1F48FEF8EBD0DB410
:102F700007FEFDCF9EB598838EBD0DB407FEFDCF35
:102F800022969EB5FE01319790830250110971F788
:102F90008FEF5BDF8FEF59DF81E090E002C080E0D0
:102FA00090E0DF91CF911F910F9108951F93CF93E0
:102FB000DF93EC01162F84EF91E04DDF009739F19C
:102FC000812F43DF1D3F09F1CE019E5F28812EBD79
:102FD0000DB407FEFDCF2296FE01319720812EBD54
:102FE0000DB407FEFDCFC817D90781F78FEF2DDF8E
:102FF0008FEF2BDF8FEF29DF8F7131E020E08530FD
:1030000009F030E0832F922F02C081E090E0DF9141
:10301000CF911F910895DF92EF92FF920F931F932C
:10302000CF93DF9300D000D0CDB7DEB783EB90E035
:103030000E94A92884E990E00E94A9288AE0809350
:103040005201809152018111FCCF8091000181FDDC
:103050009CC084EA90E00E94A92884B18A6284B965
:103060002498219A8CE18CBD8CB580648CBD21980C
:10307000219A1AE08FEFE9DE1150E1F740E050E0CD
:10308000BA0180E01BDF813009F06DC084E68093D7
:1030900052014AEA51E060E070E088E00FDF8130E1
:1030A00009F03CC08E010F5F1F4F780184E0D82EDD
:1030B000D00E8FEFCADEF70181937F01DE12F9CFC8
:1030C0008B81813009F04FC08C818A3A09F04BC066
:1030D00080915201811106C080915201882309F428
:1030E00042C009C040E050E060E070E489EAE6DEFA
:1030F0008111EECFF1CF40E050E0BA018AE3DEDE8D
:10310000811131C08FEFA1DEF80181938F01DE12B2
:10311000F9CF898186FD29C014E028C040E050E045
:10312000BA0189EACBDE823018F011E001E002C07A
:1031300012E009EA80915201811105C0809152018B
:10314000882389F008C040E050E0BA01802FB6DE45
:103150008111F0CFF3CF40E052E060E070E080E119
:10316000ADDE882319F010E001C01CE0109350017F
:1031700088DE112331F0809100018E7F8093000161
:1031800004C084E990E00E94A928809100010F907A
:103190000F900F900F90DF91CF911F910F91FF90A3
:1031A000EF90DF900895809100010895EF92FF92D3
:1031B0001F93CF93DF937C01E901209781F18091E8
:1031C000000180FD2EC08091500183FD07C089E081
:1031D000440F551F661F771F8A95D1F7C230D1055E
:1031E00010F411E101C012E1812F68DE811111C0DC
:1031F00060E072E0C701A5DE892B21F08EEFF81A9E
:103200002197B1F7123129F440E050E0BA018CE087
:1032100055DE37DE81E0CD2B29F480E003C084E069
:1032200001C083E0DF91CF911F91FF90EF9008954F
:10323000CF92DF92EF92FF920F931F93CF93DF9382
:103240008C016A017B01E901209709F44AC0809151
:10325000000180FD48C08091000182FD46C0809140
:10326000500183FD07C099E0CC0CDD1CEE1CFF1C57
:103270009A95D1F7C130D10589F4B701A60188E14B
:103280001DDE811128C06EEFC80190DE31E020E024
:10329000892B09F030E0C32FD22F1DC0867029F092
:1032A000AE0160E070E087E909DEB701A60189E1BF
:1032B00005DE811110C06CEFC80178DE892B19F092
:1032C0001E5F2197C1F76DEF80E090E06FDE892BE4
:1032D00011F4C1E0D0E0D5DD81E0CD2B39F480E000
:1032E00005C084E003C083E001C082E0DF91CF919C
:1032F0001F910F91FF90EF90DF90CF900895CF92A4
:10330000DF92EF92FF920F931F93CF93DF93CDB78E
:10331000DEB760970FB6F894DEBF0FBECDBF9091B9
:10332000000190FD8AC18B01873009F47CC150F403
:10333000813001F1E8F0833009F481C0843009F470
:10334000F0C07DC1843309F43CC158F4823309F4E0
:1033500032C1833309F073C140E050E0BA0189E023
:1033600034C1853309F437C1863309F448C167C1D4
:103370008BDD52C140E050E0BA0189E09FDD811150
:103380004FC160E170E0CE010196DBDD892B09F4CD
:1033900047C19981929596959695937088854985B0
:1033A0002A859130E1F48F7390E0A0E0B0E0DC0179
:1033B000992788270196A11DB11D50E0542F44275D
:1033C000BA01620F711D860F971FA11DB11DFAE092
:1033D000880F991FAA1FBB1FFA95D1F729C04295E4
:1033E000469546954370F4E08F9FC0011124840FE9
:1033F000911D01964F81437050E0542F4427550F83
:10340000550F840F951FA0E0B0E03E81432F4F7011
:103410003B85331F3327331F340F2370220F230FB5
:10342000275004C0880F991FAA1FBB1F2A95D2F7E7
:10343000F80180839183A283B38310E0F2C0F090FF
:10344000500140E050E0BA01F2FE1DC08DE836DDCB
:103450008111E6C08FEFF9DC60E170E0CE010196EA
:1034600070DD892B09F4DCC050E3F52E8FEFEDDC25
:10347000FA94F110FBCF2B8522952F7080E190E01C
:10348000A0E0B0E0CECF89E019DD8111C9C060E1D4
:1034900070E0CE01019655DD892B09F4C1C08B8502
:1034A0002C85F1FE1FC0221F2227221F422F50E031
:1034B0004F5F5F4F8F73480F511D480F511D8E8511
:1034C0008295869586958370815002C0440F551F62
:1034D0008A95E2F760E070E0F801408351836283EF
:1034E0007383ABCF922F937022952695277030E08F
:1034F000F8E09F9F200D311D11242F5F3F4F8C77E7
:1035000090E095958795959587950196289FA001C0
:10351000299F500D389F500D1124CA01A0E0B0E042
:1035200087CF80915001867011F411E089C0BE01EF
:103530006F5F7F4F83E3E3DE8111F7CF898182954F
:1035400086958695837019F48B8586FFEECFF801FA
:103550004081518162817381C480D580E680F7808B
:103560008091500183FD0EC089E0440F551F661FF6
:10357000771F8A95D1F799E0CC0CDD1CEE1CFF1C5F
:103580009A95D1F780E29ADC8111CFCFB701A601DD
:1035900081E294DC8111C9CF40E050E0BA0186E2BB
:1035A0008DDC8111C2CF80E395E755DC11E0892BDA
:1035B00009F446C004C080915001FB01808310E0F3
:1035C0003FC040E050E0BA018AE078DC811128C0B9
:1035D00060E170E01FC040E050E0BA018AE36EDCB9
:1035E00081111EC07801F4E0EF0EF11C8FEF2DDC8D
:1035F000F80181938F01EE15FF05C1F71ECF40E062
:1036000050E0BA018DE85ADC81110AC08FEF1DDC51
:1036100060E470E0C80195DC11E0892B11F00DCF5A
:1036200011E02FDC0DC084E990E00E94A928809170
:103630000001816080930001C2CF13E001C014E05B
:10364000812F60960FB6F894DEBF0FBECDBFDF911D
:10365000CF911F910F91FF90EF90DF90CF90089541
:1036600080915201882319F08150809352018091FA
:103670005101882319F081508093510180910001FC
:10368000897F809300010895549A559A5C9A5D98B9
:10369000089528E030E080E090E05D9A69B1880FFD
:1036A000991F64FB442740F950E0840F951F5D98F3
:1036B0002150310991F70895549A87E090E09B01D9
:1036C000082E02C0359527950A94E2F720FF02C024
:1036D0005C9A01C05C985D9A811101C054985D9814
:1036E000019768F75D9A89B15D9889B10895549AF8
:1036F000559A5C9A5D9A5C985D985D9A5C9A5D9823
:10370000DBCF549884E690E0EFE4F3EC3197F1F7E7
:1037100000C000004C9B02C00197B1F708950F93C1
:103720001F93CF93DF938C015498559AB2DFD82F13
:1037300080E0C82F549A5C9A5C985D9A5D98549882
:10374000C801A7DF8C2B9D2BDF91CF911F910F918B
:103750000895549A559A5C9A5D9A5D9808950F93CE
:103760001F93CF93DF93EC018B0166E070E0BFDF26
:10377000012B19F064E070E002C060E070E0CE015F
:103780009BDFCE01DF91CF911F910F91E2CF0F937D
:103790001F93CF93DF93EC0163E070E0A8DFCE01CD
:1037A000B0DFCE01BCDF8C01CE01D3DFB801110F39
:1037B000880B990B0E94BF30DF91CF911F910F9121
:1037C0000895E5DF0E948C30072E000C880B990BC2
:1037D0000E94BF302AE037ED43E25CE30E944B31A8
:1037E00020E030E040E252E40C9427304F925F92A8
:1037F0006F927F928F929F92AF92BF92CF92DF9201
:10380000EF92FF920F931F93CF93DF93EC0165E04C
:1038100070E06DDFCE0175DFCE0181DF8C01CE015E
:1038200098DFB801110F880B990B0E94BF306B0114
:103830007C0124E533EE45E25DE30E944B3120E05C
:1038400030E040E850E40E9427304B015C0122EA5E
:1038500037EE4BE356EBC701B6010E944B31A7018F
:1038600096010E944B319B01AC01C501B4010E943D
:1038700028304B015C01CE01A4DF20E030E048ECB1
:1038800051E40E9427302B013C012CEA35EC47EA39
:1038900058E3C701B6010E944B312AE037ED43E2FD
:1038A0005CE30E9428309B01AC01C301B2010E947D
:1038B0004B31A50194010E942830DF91CF911F91D7
:1038C0000F91FF90EF90DF90CF90BF90AF909F90BF
:1038D0008F907F906F905F904F90089590936208C3
:1038E0008093610870936808609367085093640838
:1038F000409363083093660820936508FC0109949F
:10390000CF93DF93EC01E0916308F091640809958F
:10391000E0916708F091680880E00995E0916708F8
:10392000F091680880E00995982F92959F708F70AC
:103930002AE0929F800D11248883E0916708F0911E
:10394000680880E00995982F92959F708F702AE003
:10395000929F800D11248983E0916708F091680897
:1039600080E00995282F2F7086FF08C084FD265F10
:103970002A83982F927091609B8309C0982F92950B
:103980009F708AE0989F200D11242A831B82E0916A
:103990006508F0916608DF91CF9109940F931F930A
:1039A000CF93DF938C01E0916308F091640809954F
:1039B000E0916708F091680880E80995D8012C919A
:1039C000DAE0822F6D2F0E948F2FB0E18B9FA00134
:1039D0001124C6EF8C9F200D1124822FE0916708DF
:1039E000F0916808842B0995F8012181822F6D2FB1
:1039F0000E948F2FF0E18F9FA00111248C9F200D3A
:103A00001124822FE0916708F0916808842B0995B2
:103A1000D80113968C911397E0916708F09168088C
:103A200012962C91882371F0822F6D2F0E948F2F78
:103A30008C9F200D1124B0E18B9FC0011124822B9B
:103A400080640DC0822F6D2F0E948F2F30E1839FE5
:103A5000A00111248C9F200D1124822F842B099505
:103A6000E0916508F0916608DF91CF911F910F9169
:103A70000994CF93DF93EC01E0916308F09164081F
:103A80000995E0916708F091680883E00995E09155
:103A90006708F091680880E00995982F92959F70CB
:103AA0008F702AE0929F800D11248883E09167082F
:103AB000F091680880E00995982F92959F708F701B
:103AC0002AE0929F800D11248983E0916708F0918C
:103AD000680883E00995982F9695969596959E701F
:103AE000292F220F220F920F282F2F70920F9A83C7
:103AF00087FD02C01C8202C081E08C83E0916708D0
:103B0000F091680880E00995982F92959F708F70CA
:103B10002AE0929F800D11248B83E0916508F0913B
:103B20006608DF91CF9109940F931F93CF93DF9392
:103B30008C01E0916308F09164080995E0916708B1
:103B4000F091680883E80995F8012081DAE0822F76
:103B50006D2F0E948F2FF0E18F9FA0011124C6EFDF
:103B60008C9F200D1124822FE0916708F091680846
:103B7000842B0995F8012181822F6D2F0E948F2FB0
:103B8000F0E18F9FA00111248C9F200D1124822F22
:103B9000E0916708F0916808842B0995F80122816B
:103BA000822F6D2F0E948F2FF0E18F9FA001112493
:103BB0008C9F200D1124822FE0916708F0916808F6
:103BC000842B0995F8012381822F6D2F0E948F2F5E
:103BD000F0E18F9FA00111248C9F200D1124822FD2
:103BE000E0916708F0916808842B0995E0916508D9
:103BF000F0916608DF91CF911F910F910994CF93B7
:103C0000DF931F92CDB7DEB7E0916308F0916408AF
:103C100089830995E0916708F09168088981099581
:103C2000E0916708F091680880E00995E0916508E7
:103C3000F09166088983099589810F90DF91CF9172
:103C40000895CF93DF9300D0CDB7DEB7E09163083E
:103C5000F09164086A8389830995E0916708F0917F
:103C60006808898180680995E0916708F091680883
:103C70006A81862F0995E0916508F09166080F909A
:103C80000F90DF91CF910994AF92BF92CF92DF92C4
:103C9000EF92FF920F931F93CF93DF9300D0CDB796
:103CA000DEB76C017B015A01E0916308F091640872
:103CB0000995E0916708F091680887E00995E0911F
:103CC0006708F091680880E00995082FE09167087F
:103CD000F091680880E00995182FE0916708F0914D
:103CE000680880E00995382FE0916708F09168082E
:103CF00080E03A830995E0916508F0916608898330
:103D0000099591E0F6019483902F991F9927991FA7
:103D1000F50190833A81898117FF02C092609083F8
:103D200037FF04C0F50190819460908387FF04C041
:103D3000F501908198609083282F2F73982F9F70A2
:103D400086FF11C0F501808180618083F601848146
:103D50008260848322952F70FAE02F9F900D1124AA
:103D6000F601908308C022952F70FAE02F9F900DE6
:103D70001124F6019183232F2F77802F8695869526
:103D800086958E70982F990F990F890F0F70080FD5
:103D9000F7010083812F8695869586958E70982FE2
:103DA000990F990F890F1F70180F1183932F9F7010
:103DB00036FF08C034FD965FF701928322702160C0
:103DC000238309C022952F70FAE02F9F900D1124B4
:103DD000F701928313820F900F90DF91CF911F9183
:103DE0000F91FF90EF90DF90CF90BF90AF9008952C
:103DF0000F931F93CF93DF93FC01DB012C915AE0CB
:103E0000822F652F0E948F2F90E1899F80011124BE
:103E100036EF839F200D1124022B11962C911197C0
:103E2000822F0E948F2F90E1899FB0011124839FE0
:103E3000200D1124122F162B13968C911397129686
:103E40002C91882379F0822F652F0E948F2F839FDA
:103E5000200D112490E1899FB0011124262BD22F2F
:103E6000D0640DC0822F652F0E948F2F90E1899F13
:103E7000B0011124839F200D1124D22FD62B8481D1
:103E800081FF12C0C0818C2F6AE00E948F2F90E1C9
:103E9000899FB00111249AE0899FC01911242C2F09
:103EA000262BC22FC0640EC0C1818C2F6AE00E94F5
:103EB0008F2F90E1899F900111249AE0899FC0196A
:103EC0001124C22B40FD006841FD106842FDD068FE
:103ED00043FDC06844FDC064E0916308F09164084C
:103EE0000995E0916708F091680887E80995E091E5
:103EF0006708F0916808802F0995E0916708F091B4
:103F00006808812F0995E0916708F09168088D2F66
:103F10000995E0916708F09168088C2F0995E09168
:103F20006508F0916608DF91CF911F910F91099478
:103F30008EBD0DB407FEFDCF8EB508952A98089565
:103F40002A9A08958DE894E00E94A92884B18C6291
:103F500084B92498229A8CE18CBD8CB580648CBD88
:103F60002A982A9A0895CF93DF9300D000D000D0EA
:103F7000CDB7DEB7259A2D9883E080936E0187EB4D
:103F800091E0BEDC1092B70182EB91E072DD4EE071
:103F900067EB71E082EB91E02BDF8EE030DE682F83
:103FA00065608EE04EDE8FE02ADE682F6E7F8FE048
:103FB00048DE1092690081E08DBB84E690E00E94AB
:103FC000022E8EE294E0C5D688EE93E00E94022E87
:103FD0008FE292E00E9477299093700180936F01A5
:103FE000892B19F483E194E0B4D641E06DE271E0ED
:103FF00080916F01909170010E9425121F928F9302
:1040000085E094E09F938F9372D682E290E00E94C5
:1040100077297C010F900F900F900F90892B61F4FE
:104020001F9282E28F9389EE93E09F938F935FD6E6
:104030000F900F900F900F9042E360E171E0C70185
:104040000E946B121F928F9387ED93E09F938F9343
:104050004ED681E08093B1010F900F900F900F909A
:1040600000E08CE9A82E83E0B82E93E8892E93E037
:10407000992E25E4622E23E0722E31E7C32E31E023
:10408000D32E0E945D2E9093BE018093BD01439874
:1040900080916E01811119C00FB6F8940F928CB502
:1040A0008F7B8CBD2D9883B7817F846083BF83B75E
:1040B000816083BF7894889583B78E7F83BFF8949F
:1040C0008CB580648CBD0F900FBE60E372EF81E011
:1040D0000E94622E1B012C01439A8FE090DD682F15
:1040E0006C7F8FE0AEDD2A9423282428252809F050
:1040F000E5C02D9A10E08091B101181708F0B2C008
:10410000133051F48EEC93E024D661E070E08FEB35
:1041100091E025DB01E00BC0143149F460E070E070
:104120008FEB91E01CDB84EC93E013D600E087EB8F
:1041300091E0E6DB82EB91E09CDC8091B3011F9281
:104140008F938091B4011F928F938091B50190E07D
:104150008053984F9F938F93A5EBB3E0BF93AF939A
:10416000C6D58091B7011F928F938091B8011F929D
:104170008F938091B9011F928F93A5EAB3E0BF930B
:10418000AF93B5D51F920F931F921F93BF92AF921B
:10419000AED58FEB91E015DB562E472E382E292E0B
:1041A0008FEB91E023DB9F938F937F936F932F92FD
:1041B0003F924F925F929F928F926B837C838D830D
:1041C0009E8395D50FB6F894DEBF0FBECDBF9E81FE
:1041D0009F938D818F937C817F936B816F932F92BF
:1041E0003F924F925F921F920F931F921F93809165
:1041F000B7011F928F938091B8011F928F93809186
:10420000B9011F928F938091B3011F928F93809178
:10421000B4011F928F938091B50190E08053984F25
:104220009F938F937F926F921F92B0E4BF93DF9220
:10423000CF920E94DD32F60101900020E9F731971C
:10424000AF01415751409E012F5F3F4F61E771E041
:10425000C7010E9407141F5F0FB6F894DEBF0FBEA0
:10426000CDBF49CF81E08093B1018091B8018A3000
:1042700031F485E393E06DD589E18093B1018091BC
:10428000B8018B3371F4C7010E94B1151F928F934F
:1042900083E293E09F938F932AD50F900F900F9016
:1042A0000F9080916E01882319F0815080936E01E8
:1042B00084E690E00E94022E2D98E3CE89E193E0FF
:1042C00048D584E690E00E94022EDBCE8F929F922A
:1042D000BF92CF92DF92EF92FF920F931F93CF93F3
:1042E000DF931F92CDB7DEB7F82EE22E7F936F9348
:1042F0005F934F932FEC30E03F932F939983F7D444
:104300008F2C9981992E0F900F900F900F900F90F6
:104310000F900F2D192FBF2C89ECC82E80E0D82EBE
:10432000802F8F198E1568F4F80181918F011F92EB
:104330008F93DF92CF92DBD40F900F900F900F905E
:10434000EFCF60E289E698E091D5882D8B198E1524
:1043500048F4F40161914F0180EE860F8F3590F3A0
:104360006EE2F0CF86EC90E00F90DF91CF911F913D
:104370000F91FF90EF90DF90CF90BF909F908F9024
:10438000E8C4CF93DF9300D0CDB7DEB7389A0E9450
:10439000AD2C9A838983409A64E670E0CE01019641
:1043A0000E94CE2D409868EE73E0CE0101960E94E7
:1043B000CE2DF1CFCF93DF93CDB7DEB72C970FB6CD
:1043C000F894DEBF0FBECDBF8AE093E0C2D435E5DE
:1043D000832E31E0932E09ED10E04EE0E42E41E013
:1043E000F42E51EFC52E50E0D52E62E2A62E61E0EC
:1043F000B62E9A868986712C0E945D2E9093BC0100
:104400008093BB01BE01655F7F4F89E698E004D5CC
:10441000811106C064E670E081E00E94622EF2CF56
:104420006B856D30B1F0683021F4772029F37A94F0
:104430000CC0603208F3872D90E088319105E4F6D6
:104440007394FC01EB5AFE4F608389E698E00ED529
:10445000D3CFE72DF0E0EB5AFE4F108286ED90E0CF
:1044600078D4E985FA85CF0101969A878987E0811A
:104470008E2F90E0FC01E356F109E231F10508F0DE
:10448000C6C2EC5CFF4F0C94D12F8FEB91E099D911
:104490009F938F937F936F9389EF92E09F938F9376
:1044A00026D40F900F900F900F900F900F90A1CFE8
:1044B00080E00E94D0061F928F938AEE92E00DC09A
:1044C00041E06DE271E080916F01909170010E9476
:1044D00025121F928F938CED92E09F938F9307D4B8
:1044E00091C236D79F938F9387EC92E0F6CFAE01BF
:1044F0004B5F5F4F61E080E00E94F806811113C0BE
:1045000088858F938F818F938E818F938D818F93E9
:104510008DEA92E09F938F93EAD30F900F900F90C4
:104520000F900F900F90AE014B5F5F4F63E080E004
:104530000E94F806811113C088858F938F818F9315
:104540008E818F938D818F9382E992E09F938F93D9
:10455000CED30F900F900F900F900F900F90AE0151
:10456000445F5F4F62E380E00E94F80681110CC057
:104570008C851F928F9382E892E09F938F93B7D39D
:104580000F900F900F900F9041E751E063E380E0B0
:104590000E94F80681110AC08BE792E0DAD320E18D
:1045A00040E050E0BA0181E791E090DE41E751E060
:1045B00064E380E00E94F80681110AC084E792E07B
:1045C000C8D320E140E050E0BA0181E791E07EDE0F
:1045D00041E751E065E380E00E94F80681110AC0DE
:1045E0008DE692E0B6D324E040E050E0BA0181E7E6
:1045F00091E06CDE41E751E066E380E00E94F8065E
:104600008823C1F041E751E06DE380E00E94F806A5
:10461000811129C081E791E0109299019F938F93B6
:1046200084E592E09F938F9362D30F900F900F9049
:104630000F9019C080E692E08CD3412C512C3201AE
:10464000C2018F589E4F20E1B301A2013FDE80E1FD
:10465000480E511C611C711C90E449165104610400
:10466000710471F7CFCF41E751E06EE380E00E9423
:10467000F8068111BECE81E791E0109285019F93EB
:104680008F938AE492E029CFBE016F5F7F4FCE0106
:1046900009960E94F302882309F465C08981805D30
:1046A0008093B501BE016F5F7F4FCE0109960E94D6
:1046B000F30289818093B401BE016F5F7F4FCE0109
:1046C00009960E94F30289818093B301BE016F5F56
:1046D0007F4FCE0109960E94F30289818093B90130
:1046E000BE016F5F7F4FCE0109960E94F302898160
:1046F0008093B801BE016F5F7F4FCE0109960E9483
:10470000F302882309F475CE89818093B7018091E3
:10471000B3011F928F938091B4011F928F93809168
:10472000B50190E08053984F9F938F9387E392E079
:104730009F938F93DCD28091B7011F928F938091CA
:10474000B8011F928F938091B9011F928F9385E2D8
:1047500092E09F938F93CBD282EB91E0E5D987EBE8
:1047600091E01CD941C187EB91E0CAD882EB91E07E
:1047700080D98091B3011F928F938091B4011F92D1
:104780008F938091B50190E08053984F9F938F93C2
:1047900086E192E09F938F93AAD28091B7011F92F6
:1047A0008F938091B8011F928F938091B9011F92CE
:1047B0008F9384E092E09F938F9399D215C14FE637
:1047C00051E0BE016B5F7F4F8AE191E00E941316BA
:1047D000882329F01F928F938EEB90E07ECEE0919C
:1047E0006F01F091700180811F928F9384EF91E0AF
:1047F0009F938F937CD284E690E00E94022EE091FA
:104800006F01F091700181859285A0E0B0E029E010
:10481000880F991FAA1FBB1F2A95D1F7BF93AF938B
:104820009F938F938EED91E09F938F9360D284E658
:1048300090E00E94022EE0916F01F0917001828160
:104840001F928F9388EC91E09F938F9350D284E6D0
:1048500090E00E94022EE0916F01F091700180853E
:104860008F9387818F9380EB91E09F938F933FD2BB
:1048700084E690E00E94022EE0916F01F0917001B9
:10488000828D8F93818D8F93808D8F9387898F9366
:104890008CE991E09F938F932AD284E690E00E9466
:1048A000022EE0916F01F091700186898F938589C6
:1048B0008F9384898F9383898F9381E891E09F936D
:1048C0008F9315D284E690E00E94022EE0916F0152
:1048D000F091700182A18F9381A18F9380A18F931A
:1048E000878D8F9389E691E09F938F9300D20FB6C7
:1048F000F894DEBF0FBECDBF84E690E00E94022E8A
:10490000E0916F01F091700186A18F9385A18F9343
:1049100084A18F9383A18F9389E491E09F938F93D8
:10492000E6D184E690E00E94022EE0916F01F091C2
:10493000700182A58F9381A58F9380A58F9387A106
:104940008F9380E391E09F938F93D1D184E690E0A1
:104950000E94022E49C00E94AD2C9F938F93BF925C
:10496000AF92BDCDAE01455F5F4F67EB71E082EB6B
:1049700091E08AD98091B3011F928F938091B40105
:104980001F928F938091B50190E08053984F9F9331
:104990008F93FF92EF92ABD18B851F928F93809173
:1049A000B7011F928F938091B8011F928F938091CE
:1049B000B9011F928F93DF92CF9299D184E690E054
:1049C0000E94022E0FB6F8940F9283B7817F846005
:1049D00083BF83B7816083BF7894889583B78E7FC8
:1049E00083BFF8940F900FBE0FB6F894DEBF0FBED2
:1049F000CDBFFFCCB2D79F938F931F930F9377D1E7
:104A000010926E010F900F900F900F90F2CC8CE1EE
:104A100091E00CD1EECCCF93DF93CDB7DEB7A29768
:104A20000FB6F894DEBF0FBECDBF229A2A982A9AFD
:104A30008FE087B918B888E0E82EF12C00E210E08A
:104A400020E036E940E050E060E0CE01019663D21C
:104A500082E2FE013196A9E6B8E001900D928A95B6
:104A6000E1F720EA3FE14EE95FE168E97FE182EAB0
:104A70009FE10E946E1C89E694E06BD384E594E08C
:104A800068D3E12CF12C04E020E030E045E550E073
:104A90006EE271E081EC91E243D603E020E030E089
:104AA00040E850E067E371E08AED91E239D602E038
:104AB00020E030E04CE251E06FE371E083EB9FE1F6
:104AC0002FD646D49F938F938DE394E09F938F933B
:104AD00015D315D70F900F900F900F90FFCF0F9316
:104AE0001F93CF93DF93E2EBF1E08181428150E0AD
:104AF00060E070E095E1440F551F661F771F9A959F
:104B0000D1F7682BC7EBD1E08A8190E0A0E0B0E05C
:104B10002BE0880F991FAA1FBB1F2A95D1F7482B9E
:104B2000592B6A2B7B2B898190E0A0E0B0E035E027
:104B3000880F991FAA1FBB1F3A95D1F7482B592BF5
:104B40006A2B7B2B888190E0A0E0B0E0B695A7951A
:104B500097958795482B592B6A2B7B2B838190E067
:104B60004496092E000CAA0BBB0BD9E1880F991FA4
:104B7000AA1FBB1FDA95D1F78A019B01082B192BBD
:104B80002A2B3B2BC901B801DF91CF911F910F91C7
:104B900008951F920F920FB60F9211242F933F93F7
:104BA0004F935F936F937F938F939F93AF93BF9335
:104BB000EF93FF9363E571E08091BD019091BE0199
:104BC0000E94B12E1092BE011092BD018CB580647E
:104BD0008CBD8FE014D8682F6C7F8FE032D8E09ABC
:104BE00080915301811163D4FF91EF91BF91AF91F7
:104BF0009F918F917F916F915F914F913F912F91F5
:104C00000F900FBE0F901F9018950895809154013A
:104C10008F5F809354018B3020F00E940107109227
:104C2000540108958FEB91E00C94441BCF93DF93D4
:104C3000FC0101900020E9F7DC019F0121503109BE
:104C400046E758E0A217B30709F44EC08D910FB69E
:104C5000F8940F92E0917608F09177080F900FBECC
:104C60006091800870918108E617F707B1F4EFEFC3
:104C7000F9EF3197F1F700C000000FB6F8940F92EA
:104C8000E0917608F09177080F900FBE6091800850
:104C900070918108E617F707A9F2FA01C281D38162
:104CA0008883828193810196938382836085718555
:104CB0008617970721F486819781938382830FB6A5
:104CC000F8940F92808191810196918380830F9057
:104CD0000FBE80916908823008F0B4CF8091C10086
:104CE00080628093C100AECFDF91CF910895EF92A3
:104CF000FF920F931F93CF93DF93CDB7DEB78E0153
:104D0000075F1F4FF801E190F1908F0180918608B5
:104D1000813011F4CCD3FACF81E080938608609182
:104D20008408709185089801A7018091820890916C
:104D300083080E940B33809182089091830876DF6C
:104D400010928608DF91CF911F910F91FF90EF9005
:104D50000895CF93DF93D82FC92F0E948632ED2F6D
:104D6000FC2FBF01680F791F46E758E0E617F707E9
:104D700009F44FC084910FB6F8940F92A091760871
:104D8000B09177080F900FBE209180083091810874
:104D9000A217B307B1F4AFEFB9EF1197F1F700C065
:104DA00000000FB6F8940F92A0917608B0917708A2
:104DB0000F900FBE2091800830918108A217B30791
:104DC00031F1EA01AA81BB818C932A813B812F5F5B
:104DD0003F4F3B832A83888599852817390721F41B
:104DE0008E819F819B838A830FB6F8940F9288816E
:104DF00099810196998388830F900FBE80916908ED
:104E0000823028F49091C10090629093C100319655
:104E1000ADCFDF91CF9108950FB6F8940F92FC01BA
:104E2000218132810F900FBE232BF1F00196FC01FE
:104E3000A481B5812D91B583A48380859185A81720
:104E4000B90721F486819781958384830FB6F894FE
:104E50000F92808191810197918380830F900FBE83
:104E6000FB01208381E0089580E00895CF93DF93D4
:104E7000DC010FB6F8940F921D962D913C911E9770
:104E80000F900FBE57968D919C9158972817390710
:104E9000B1F48FEF99EF0197F1F700C000000FB662
:104EA000F8940F921D962D913C911E970F900FBE76
:104EB00057968D919C9158972817390731F1FD012C
:104EC0003D96C281D38168838281938101969383C9
:104ED0008283208531858217930721F4868197810B
:104EE000938382830FB6F8940F928081918101960B
:104EF000918380830F900FBE8C91823040F480911B
:104F0000C10080628093C10002C080E001C081E0E6
:104F1000DF91CF910895BF92CF92DF92EF92FF92EF
:104F20000F931F93CF93DF93CDB7DEB7A6970FB63E
:104F3000F894DEBF0FBECDBF6C01B62EC7012BA308
:104F40003CA34DA35EA3D3D12BA13CA14DA15EA157
:104F50000097A9F0FE0132960FB6F8940F921182D5
:104F600010829383828395838483978386838E0DB7
:104F70009F1D91878087F386E2860F900FBEC80140
:104F80002BA33CA34DA35EA3B2D12BA13CA14DA169
:104F90005EA10097A9F0FE013E960FB6F8940F921D
:104FA000118210829383828395838483978386837F
:104FB000800F911F91878087138702870F900FBE04
:104FC000C8012BA33CA34DA35EA391D19B8F8A8FD5
:104FD000B9821D8F0C8F1E8E2BA13CA14DA15EA10D
:104FE0002F8F38A349A35AA30FB6F8940F92BB2072
:104FF00061F181E0B8124FC01092C5001092C40058
:10500000549A80EC8093C20088E98093C100DA0151
:10501000C901805C9D4BA04FBF4FBC01CD01E3E0B7
:10502000660F771F881F991FEA95D1F7F4E0220FCA
:10503000331F441F551FFA95D1F791D721503109DD
:105040003093C5002093C40026C0DA01C9018058FE
:105050009B47A14EBF4FBC01CD01A2E0660F771F59
:10506000881F991FAA95D1F7B3E0220F331F441F61
:10507000551FBA95D1F773D7215031093093C50028
:105080002093C40082E08093C00088E98093C1002F
:105090008EE08093C2000F900FBE82E2FE01319637
:1050A000D60101900D928A95E1F7C601A6960FB63A
:1050B000F894DEBF0FBECDBFDF91CF911F910F914E
:1050C000FF90EF90DF90CF90BF900895DC010D909E
:1050D0000020E9F7FC01CD010197E817F90769F015
:1050E00021913091C00035FD05C032E43A95F1F7C9
:1050F00000C0F7CF2093C600F0CF0895CF93DF9381
:10510000CDB7DEB79E012B5F3F4FF9014191519121
:105110009F0180918608813029F4F2E4FA95F1F735
:1051200000C0F7CF81E08093860860918408709179
:10513000850880918208909183080E940B338091AA
:10514000820890918308C2DF10928608DF91CF9188
:105150000895CF93DF93D82FC92F0E948632ED2F69
:10516000FC2F8E0F9F1FE817F90771F024913091E3
:10517000C00035FD05C032E43A95F1F700C0F7CF25
:105180002093C6003196EFCFDF91CF9108951F9203
:105190000F920FB60F9211242F933F934F935F936B
:1051A0006F937F938F939F93AF93BF93EF93FF93EF
:1051B0008091C0008C7139F08091C00087FF32C0AF
:1051C0008091C600F9CF8091C6000FB6F8940F9277
:1051D00040916A0850916B080F900FBE209174089F
:1051E0003091750842175307E9F0EAE6F8E0A2812A
:1051F000B3818C93828193810196938382832085EE
:1052000031858217930721F4868197819383828366
:105210000FB6F8940F9280819181019691838083DB
:105220000F900FBE60EC71E08091BB019091BC01CA
:1052300098D51092BC011092BB018091C0018111E0
:1052400036D1FF91EF91BF91AF919F918F917F9157
:105250006F915F914F913F912F910F900FBE0F90E3
:105260001F9018951F920F920FB60F9211242F9333
:105270008F939F93AF93BF93EF93FF930FB6F894E1
:105280000F9280917608909177080F900FBE892B2E
:1052900031F48091C1008F7D8093C1001CC0E6E78E
:1052A000F8E0A481B5812D91B583A4838085918593
:1052B000A817B90721F486819781958384830FB657
:1052C000F8940F92808191810197918380830F9050
:1052D0000FBE2093C600FF91EF91BF91AF919F91B8
:1052E0008F912F910F900FBE0F901F901895CF9315
:1052F000DF93EC012CD38091C1019091C201892BE5
:1053000031F486EC91E09093C2018093C101209129
:10531000C3013091C401CE01820F931F8F3346E049
:10532000940770F42817390758F4C091C101D0913F
:10533000C201C20FD31F9093C4018093C30102C066
:10534000C0E0D0E0C2D3CE01DF91CF91089508959F
:105350002091C3013091C4018FE396E0821B930B2F
:10536000089531E1FC013083319722E220833197A7
:10537000A3E3A083319760833197708331971082C4
:10538000319760E8608331971082319762E06083E3
:10539000319763E06083319764E06083319765E023
:1053A0006083319766E06083319767E0608331976F
:1053B00068E06083319769E06083319760E16083E2
:1053C00031973083319732E13083319733E1308345
:1053D000319734E13083319735E13083319736E1CD
:1053E0003083319737E13083319738E1308331971B
:1053F00039E13083319730E23083319731E23083C5
:1054000031972083319723E220833197408331976E
:105410005083319726E22083319727E2208331970A
:1054200028E22083319729E22083319720E32083EB
:10543000319721E3208386970895109289008CE7A5
:10544000809388008BE080938100EFE6F0E080811C
:1054500082608083A0915F08B0916008CD91CDBF3C
:10546000DD91DEBFFF91EF91DF91CF91BF91AF91C1
:105470009F918F917F916F915F914F913F912F916C
:105480001F910F91FF90EF90DF90CF90BF90AF9062
:105490009F908F907F906F905F904F903F902F9054
:1054A0001F900F900FBE0F90089581E008950F9206
:1054B0000FB6F8940F921F9211242F923F924F92A1
:1054C0005F926F927F928F929F92AF92BF92CF9294
:1054D000DF92EF92FF920F931F932F933F934F937F
:1054E0005F936F937F938F939F93AF93BF93CF936C
:1054F000DF93EF93FF93A0915F08B09160080DB622
:105500000D920EB60D9296D3A0915F08B0916008EF
:10551000CD91CDBFDD91DEBFFF91EF91DF91CF91B6
:10552000BF91AF919F918F917F916F915F914F91BB
:105530003F912F911F910F91FF90EF90DF90CF90AF
:10554000BF90AF909F908F907F906F905F904F90A3
:105550003F902F901F900F900FBE0F9008950F92C5
:105560000FB6F8940F921F9211242F923F924F92F0
:105570005F926F927F928F929F92AF92BF92CF92E3
:10558000DF92EF92FF920F931F932F933F934F93CE
:105590005F936F937F938F939F93AF93BF93CF93BB
:1055A000DF93EF93FF93A0915F08B09160080DB671
:1055B0000D920EB60D92DBD181113CD3A0915F0804
:1055C000B0916008CD91CDBFDD91DEBFFF91EF912D
:1055D000DF91CF91BF91AF919F918F917F916F910B
:1055E0005F914F913F912F911F910F91FF90EF90FD
:1055F000DF90CF90BF90AF909F908F907F906F90F3
:105600005F904F903F902F901F900F900FBE0F9084
:105610000895A5DF189580913B08823008F047DF98
:10562000F4DAF9CFE0912708F09128088081811100
:1056300003C08FEF9FEF0CC0E0912708F09128087E
:105640000580F681E02D0680F781E02D828193812F
:1056500090930908809308080895EF92FF920F93A2
:105660001F93CF93DF931F92CDB7DEB77C010091DC
:1056700010081091110880915F08909160080296BF
:1056800069832AD469818FEFE816F80691F46623BE
:1056900081F060915F08709160086E5F7F4F83E1D9
:1056A00098E00F90DF91CF911F910F91FF90EF90B5
:1056B000BAC3E00EF11EE0915F08F0916008F3823A
:1056C000E28260915F0870916008E016F10670F464
:1056D00080912508909126086E5F7F4F0F90DF9193
:1056E000CF911F910F91FF90EF90BEC3809127083B
:1056F000909128086E5F7F4FB7D3809108089091F2
:105700000908E816F90620F4F0920908E092080862
:105710000F90DF91CF911F910F91FF90EF9008951F
:105720002F923F925F926F927F928F929F92AF9251
:10573000BF92CF92DF92EF92FF920F931F93CF937E
:10574000DF934C01562E172F5A013901CA01CFDDC4
:105750001C01892B09F4C0C084E290E0C8DDEC0193
:10576000009781F0388E2F8A650121E0C21AD10896
:10577000C20CD31CBC01675E7F4FE52DF12FCF011A
:10578000049606C0C101E3DDA7C0E817F90749F098
:105790009F014191DB014D93BD01D9012C91211154
:1057A000F4CF1C8E043008F003E00E8B0D8F1E8E9C
:1057B0005E01B2E0AB0EB11CC50131D3CE010C9637
:1057C0002ED3D987C88784E090E0801B91099D87FC
:1057D0008C87DB8BCA8B1F8E18A219A21AA21BA260
:1057E000A301B401C601BDDD99838883E114F104EE
:1057F00019F0F701D183C0830FB6F8940F9280910E
:1058000012088F5F8093120880915F089091600862
:10581000892B69F5D0936008C0935F0880911208C6
:105820008130A9F58BE398E0ECD284E498E0E9D2EA
:105830008DE498E0E6D286E598E0E3D282E398E052
:10584000E0D289E298E0DDD28CE198E0DAD283E11F
:1058500098E0D7D282E398E09093280880932708B5
:1058600089E298E0909326088093250810C08091E3
:105870000E0881110CC0E0915F08F09160089689D4
:105880008E89891720F0D0936008C0935F088091BB
:105890000A088F5F80930A088E8990910F089817E5
:1058A00010F480930F08F9E08F9FC0011124B50117
:1058B000855C974FB8D20F900FBE80910E08882359
:1058C00049F0E0915F08F091600896898E899817F9
:1058D00008F4EDDD81E001C08FEFDF91CF911F91E2
:1058E0000F91FF90EF90DF90CF90BF90AF909F907F
:1058F0008F907F906F905F903F902F900895EF92E0
:10590000FF920F9386E0E82E88E0F82E00E020E07A
:1059100030E045E550E067E471E08BE09BE200DFBA
:10592000813089F4F8942FEF3FEF309309082093EA
:10593000080880930E0810921108109210080F9119
:10594000FF90EF907ACD0F91FF90EF9008958091A6
:1059500005088F5F8093050808950FB6F8940F929D
:1059600080911008909111080F900FBE0895CF926A
:10597000DF92EF92FF920F931F93CF93DF9380916B
:10598000050881118DC000911008109111080F5F5A
:105990001F4F109311080093100801151105B1F461
:1059A0008091270890912808209125083091260899
:1059B0003093280820932708909326088093250881
:1059C00080910B088F5F80930B082CDE8091080874
:1059D00090910908C0E00817190708F44CC0D9E0F5
:1059E000E0912708F09128088081811103C08FEF92
:1059F0009FEF11C0E0912708F09128080580F681FB
:105A0000E02DE680F780D70112968D919C91139737
:105A10000817190728F490930908809308082BC0E9
:105A20006701B2E0CB0ED11CC60156D2F7018489C2
:105A30009589892B19F0C7010C964ED2D70156963D
:105A40009C9180910F08891710F490930F08D99FAB
:105A5000C0011124B601855C974FE5D1E0915F0844
:105A6000F0916008D70156969C918689981708F4A2
:105A7000B7CFC1E0B5CFE0915F08F0916008E6894B
:105A8000B9E0EB9FF0011124E55CF74F8081823093
:105A900008F0C1E080910D08811109C0B7D807C096
:105AA00080910D088F5F80930D08B0D8C0E0809181
:105AB0000C088111C1E08C2FDF91CF911F910F91C4
:105AC000FF90EF90DF90CF900895EF92FF920F93A9
:105AD0001F93CF93DF930FB6F8940F928091050830
