:1000000033C000004CC000004AC0000048C00000DF
:1000100046C0000044C0000042C0000040C00000D4
:100020003EC000003CC000003AC00000A1C5000076
:1000300036C0000034C0000032C0000030C00000F4
:100040002EC000002CC000002AC0000028C0000004
:1000500026C0000024C0000022C0000020C0000014
:100060001EC000001CC0000011241FBECFEFD8E04E
:10007000DEBFCDBF11E0A0E0B1E0E4E9FCE002C0EA
:1000800005900D92A031B107D9F727E0A0E1B1E0CA
:1000900001C01D92A235B207E1F718D0F9C5B0CF63
:1000A000CF93DF9300D0CDB7DEB7259A90D19A8356
:1000B00089832D9A64E670E0CE010196A3D22D9833
:1000C00064E670E0CE0101969DD2F3CFE12CF12CD5
:1000D00003E020E030E040E051E062E071E080E5E4
:1000E00090E05DD046D1FFCFE0913301F091340133
:1000F0008081811103C08FEF9FEF0CC0E09133012D
:10010000F09134010580F681E02D0680F781E02D25
:1001100082819381909314018093130108950F932A
:100120001F93CF93DF93EC0100911B0110911C01F1
:1001300080916B0190916C01029687D5C00FD11F01
:10014000E0916B01F0916C01D383C28360916B01EC
:1001500070916C01C017D10758F4809131019091D2
:1001600032016E5F7F4FDF91CF911F910F9135C5A7
:1001700080913301909134016E5F7F4F2ED5809135
:10018000130190911401C817D90720F4D0931401DA
:10019000C0931301DF91CF911F910F9108954F925A
:1001A0005F926F927F928F929F92AF92BF92CF9207
:1001B000DF92EF92FF920F931F93CF93DF935C0137
:1001C000762E172F6A014901CA01C0D22C01892B52
:1001D00009F4BDC086E290E0B9D2EC01009779F055
:1001E000588E4F8A21E0C21AD108C40CD51CBC011C
:1001F000675E7F4FE72DF12FCF01089606C0C20141
:1002000035D3A5C0E817F90749F09F014191DB01FB
:100210004D93BD01D9012C912111F4CF18A20430C6
:1002200008F003E00E8B3E01B2E06B0E711CC301BF
:10023000AFD4CE010C96ACD4D987C88784E090E0C7
:10024000801B91099D878C87DB8BCA8B19A21AA210
:100250001BA21CA21DA2A401B501C60131D3998322
:100260008883E114F10419F0F701D183C0830FB63C
:10027000F8940F9280911D018F5F80931D018091F2
:100280006B0190916C01892B69F5D0936C01C0933F
:100290006B0180911D018130A9F587E491E06AD45A
:1002A00080E591E067D489E591E064D482E691E04D
:1002B00061D48EE391E05ED485E391E05BD488E283
:1002C00091E058D48FE191E055D48EE391E0909382
:1002D00034018093330185E391E090933201809360
:1002E000310110C08091190181110CC0E0916B01A6
:1002F000F0916C0196898E89891720F0D0936C015A
:10030000C0936B01809115018F5F809315018E89D9
:1003100090911A01981710F480931A01F9E08F9FB9
:10032000C0011124B301895B9E4F36D40F900FBEDC
:1003300080911901882349F0E0916B01F0916C01E3
:1003400096898E89981708F461D381E001C08FEFF8
:10035000DF91CF911F910F91FF90EF90DF90CF90A1
:10036000BF90AF909F908F907F906F905F904F90D5
:100370000895EF92FF920F9381E1E82E81E0F82E2D
:1003800000E020E030E045E550E06BE071E085E31F
:1003900093E005DF813089F4F8942FEF3FEF30933D
:1003A0001401209313018093190110921C011092E3
:1003B0001B010F91FF90EF90EFC20F91FF90EF9014
:1003C0000895809110018F5F8093100108950FB6FA
:1003D000F8940F9280911B0190911C010F900FBE19
:1003E0000895CF92DF92EF92FF920F931F93CF93D6
:1003F000DF9380911001811188C000911B01109141
:100400001C010F5F1F4F10931C0100931B0101156E
:100410001105B1F4809133019091340120913101A3
:1004200030913201309334012093330190933201A3
:1004300080933101809116018F5F8093160154DE05
:100440008091130190911401C0E00817190708F476
:100450004CC0D9E0E0913301F091340180818111E9
:1004600003C08FEF9FEF11C0E0913301F091340191
:100470000580F681E02DE680F780D70112968D91F8
:100480009C9113970817190728F4909314018093EF
:1004900013012BC06701B2E0CB0ED11CC601D5D32E
:1004A000F70184899589892B19F0C7010C96CDD362
:1004B000D70156969C9180911A01891710F4909358
:1004C0001A01D99FC0011124B601895B9E4F64D3E4
:1004D000E0916B01F0916C01D70156969C91868951
:1004E000981708F4B7CFC1E0B5CFE0916B01F09158
:1004F0006C01E689B9E0EB9FF0011124E95BFE4F46
:100500008081823040F0C1E006C0809118018F5F89
:1005100080931801C0E0809117018111C1E08C2FF8
:10052000DF91CF911F910F91FF90EF90DF90CF90CF
:100530000895EF92FF920F931F93CF93DF930FB61F
:10054000F8940F9280911001815080931001809156
:100550001001882311F080E04CC080911D01882398
:10056000D1F3C0E0D0E089E0F82EEE24E39480914E
:100570002801882339F1E0912D01F0912E01C681E7
:10058000D781CE010C9661D38E010E5F1F4FC8013B
:100590005CD39E8980911A01891710F490931A01F7
:1005A000F99EC0011124B801895B9E4FF5D2E091FC
:1005B0006B01F0916C019E8986899817C0F2E092D8
:1005C0001701D5CFCD2B09F08FDDC0911801CC23B9
:1005D00049F0D1E006DF8111D0931701C150D1F766
:1005E0001092180180911701882309F4B4CF0ED21C
:1005F00081E00F900FBEDF91CF911F910F91FF907F
:10060000EF9008950F931F93CF93DF938C01EB012D
:10061000D8DE20911B0130911C01F80140815181ED
:10062000BA016C0F7D1F2417350728F4641775076E
:1006300048F491E004C091E06417750720F0261794
:10064000370708F090E0F80171836083992321F067
:10065000CB01821B930B63DD6CDF811101C0D6D10E
:10066000DF91CF911F910F91089580911E018823F2
:1006700021F1A7DEC0911F015CDFCC23B1F30FB6DF
:10068000F8940F92E0912401F0912501C681D78161
:10069000CE010296DAD280911D01815080931D0116
:1006A00080911E01815080931E010F900FBE8F8993
:1006B000988DDCD0CE01DAD0D8CF8091470182303E
:1006C000A0F2A4D1D2CF80911001882321F081E043
:1006D0008093170108951092170180911A0169E023
:1006E000482F50E0649F9001659F300D1124F9015F
:1006F000E95BFE4F9081911102C08150F1CFA18141
:10070000B28112960D90BC91A02DB283A183265B7D
:100710003E4FA217B30731F412962D913C911397D7
:100720003283218399E0949FF001959FF00D11246D
:10073000E95BFE4F0180F281E02D26813781309305
:100740006C0120936B0180931A0108950F931F93FE
:10075000CF93DF93EC0135DE80916D01811121C0D3
:1007600087E791E090937301809372011092750175
:10077000109274018BED95E090937101809370015C
:1007800010926F0110926E0190937A01809379011B
:100790008EE691E0909378018093770181E08093D9
:1007A0006D01209709F02496CE0101978A3D95406E
:1007B00008F053C0E0917201F0917301A2E7B1E03B
:1007C000828193818C179D0728F021E0EE36F20795
:1007D00049F443C02081318121153105B1F3DF0196
:1007E000F901EECF0D911C9111970C5F1F4F2081E5
:1007F00031812D933C938C1B9D0B8930910500F129
:10080000DF01AC0FBD1F13969C938E931297D38379
:10081000C28312962D913C91139762E771E0EB0130
:1008200088819981EC014A815B814217530710F45A
:10083000BC01F5CF11969C938E93EB01B983A883ED
:10084000809100019091010122813381821B930BE1
:10085000909301018093000102C000E010E069DE86
:10086000C801DF91CF911F910F910895CF93DF932E
:10087000009719F1EC012497A4DD8A819B81E2E7BE
:10088000F1E0A081B18112962D913C911397281728
:10089000390710F4FD01F5CFB983A883D183C08354
:1008A0002091000130910101820F931F909301016B
:1008B00080930001DF91CF913CCEDF91CF910895DD
:1008C00031E1FC013083319722E220833197A3E3A9
:1008D000A08331976083319770833197108231976D
:1008E00060E8608331971082319762E060833197CE
:1008F00063E06083319764E06083319765E06083F3
:10090000319766E06083319767E06083319768E0F4
:100910006083319769E06083319760E1608331974C
:100920003083319732E13083319733E1308331972F
:1009300034E13083319735E13083319736E13083CC
:10094000319737E13083319738E13083319739E19E
:100950003083319730E23083319731E23083319701
:100960002083319723E2208331974083319750834E
:10097000319726E22083319727E22083319728E2BE
:100980002083319729E22083319720E32083319718
:1009900021E3208386970895109289008CE7809345
:1009A00088008BE080938100EFE6F0E08081826038
:1009B0008083A0916B01B0916C01CD91CDBFDD9191
:1009C000DEBFFF91EF91DF91CF91BF91AF919F91EA
:1009D0008F917F916F915F914F913F912F911F91D7
:1009E0000F91FF90EF90DF90CF90BF90AF909F90CE
:1009F0008F907F906F905F904F903F902F901F90BF
:100A00000F900FBE0F90089581E008950F920FB6DA
:100A1000F8940F921F9211242F923F924F925F925F
:100A20006F927F928F929F92AF92BF92CF92DF92FE
:100A3000EF92FF920F931F932F933F934F935F93E8
:100A40006F937F938F939F93AF93BF93CF93DF93D6
:100A5000EF93FF93A0916B01B0916C010DB60D92D5
:100A60000EB60D9230DEA0916B01B0916C01CD916C
:100A7000CDBFDD91DEBFFF91EF91DF91CF91BF91AF
:100A8000AF919F918F917F916F915F914F913F9126
:100A90002F911F910F91FF90EF90DF90CF90BF901B
:100AA000AF909F908F907F906F905F904F903F900E
:100AB0002F901F900F900FBE0F9008950F920FB6BA
:100AC000F8940F921F9211242F923F924F925F92AF
:100AD0006F927F928F929F92AF92BF92CF92DF924E
:100AE000EF92FF920F931F932F933F934F935F9338
:100AF0006F937F938F939F93AF93BF93CF93DF9326
:100B0000EF93FF93A0916B01B0916C010DB60D9224
:100B10000EB60D9266DC8111D6DDA0916B01B0910D
:100B20006C01CD91CDBFDD91DEBFFF91EF91DF91E3
:100B3000CF91BF91AF919F918F917F916F915F9175
:100B40004F913F912F911F910F91FF90EF90DF9068
:100B5000CF90BF90AF909F908F907F906F905F905D
:100B60004F903F902F901F900F900FBE0F900895C1
:100B7000A5DF1895FC010396928381832FEF3FEF49
:100B80003483238396838583908787831082089597
:100B9000FC01118610860895CF93DF939C01FB0121
:100BA000DC011196CD91DC911297D383C2838C81A5
:100BB0009D81958384838C819D81DC0113967C9338
:100BC0006E9312977D836C8331872087F901808132
:100BD0008F5F8083DF91CF9108950F931F93CF9301
:100BE000DF938C01FB01808191818F3F2FEF920772
:100BF00021F4E801AF81B8850EC0D8011396129692
:100C00002D913C911397E9014881598184179507EB
:100C100010F0D901F4CF12968D919C911397938384
:100C20008283EC01FD83EC83B583A4831396FC934C
:100C3000EE93129711870087F80180818F5F808380
:100C4000DF91CF911F910F910895CF93DF93FC0116
:100C5000A085B1858281938124813581EC013D831A
:100C60002C83C481D5819B838A8311968D919C911D
:100C700012978E179F0721F41296DC93CE9311974B
:100C8000118610868C9181508C93DF91CF910895BD
:040C9000F894FFCF06
:100C9400DB05477265656E4C45440049444C45008C
:00000001FF
